{"abi":[{"type":"constructor","inputs":[{"name":"_name","type":"string","internalType":"string"},{"name":"_symbol","type":"string","internalType":"string"}],"stateMutability":"nonpayable"},{"type":"function","name":"DECIMALS","inputs":[],"outputs":[{"name":"","type":"uint8","internalType":"uint8"}],"stateMutability":"view"},{"type":"function","name":"DEFAULT_ADMIN_ROLE","inputs":[],"outputs":[{"name":"","type":"bytes32","internalType":"bytes32"}],"stateMutability":"view"},{"type":"function","name":"DEFAULT_PARTITION","inputs":[],"outputs":[{"name":"","type":"bytes32","internalType":"bytes32"}],"stateMutability":"view"},{"type":"function","name":"UNIT_NOMINAL","inputs":[],"outputs":[{"name":"","type":"uint256","internalType":"uint256"}],"stateMutability":"view"},{"type":"function","name":"activePartitions","inputs":[{"name":"","type":"bytes32","internalType":"bytes32"}],"outputs":[{"name":"","type":"bool","internalType":"bool"}],"stateMutability":"view"},{"type":"function","name":"addController","inputs":[{"name":"_controller","type":"address","internalType":"address"}],"outputs":[],"stateMutability":"nonpayable"},{"type":"function","name":"authorizeOperator","inputs":[{"name":"operator","type":"address","internalType":"address"}],"outputs":[],"stateMutability":"nonpayable"},{"type":"function","name":"authorizeOperatorByPartition","inputs":[{"name":"partition","type":"bytes32","internalType":"bytes32"},{"name":"operator","type":"address","internalType":"address"}],"outputs":[],"stateMutability":"nonpayable"},{"type":"function","name":"balanceOf","inputs":[{"name":"tokenHolder","type":"address","internalType":"address"}],"outputs":[{"name":"balance","type":"uint256","internalType":"uint256"}],"stateMutability":"view"},{"type":"function","name":"balanceOfByPartition","inputs":[{"name":"partition","type":"bytes32","internalType":"bytes32"},{"name":"tokenHolder","type":"address","internalType":"address"}],"outputs":[{"name":"balance","type":"uint256","internalType":"uint256"}],"stateMutability":"view"},{"type":"function","name":"buybackRedeemFor","inputs":[{"name":"_holder","type":"address","internalType":"address"},{"name":"_isin","type":"string","internalType":"string"},{"name":"_value","type":"uint256","internalType":"uint256"},{"name":"_operator","type":"address","internalType":"address"}],"outputs":[],"stateMutability":"nonpayable"},{"type":"function","name":"controllers","inputs":[],"outputs":[{"name":"controllerList","type":"address[]","internalType":"address[]"}],"stateMutability":"view"},{"type":"function","name":"couponDuration","inputs":[{"name":"","type":"bytes32","internalType":"bytes32"}],"outputs":[{"name":"","type":"uint256","internalType":"uint256"}],"stateMutability":"view"},{"type":"function","name":"couponPaymentCount","inputs":[{"name":"","type":"bytes32","internalType":"bytes32"}],"outputs":[{"name":"","type":"uint256","internalType":"uint256"}],"stateMutability":"view"},{"type":"function","name":"couponYield","inputs":[{"name":"","type":"bytes32","internalType":"bytes32"}],"outputs":[{"name":"","type":"uint256","internalType":"uint256"}],"stateMutability":"view"},{"type":"function","name":"createPartition","inputs":[{"name":"_isin","type":"string","internalType":"string"},{"name":"_offering","type":"uint256","internalType":"uint256"},{"name":"_maturityDuration","type":"uint256","internalType":"uint256"}],"outputs":[],"stateMutability":"nonpayable"},{"type":"function","name":"decimals","inputs":[],"outputs":[{"name":"decimalsValue","type":"uint8","internalType":"uint8"}],"stateMutability":"pure"},{"type":"function","name":"enableByIsin","inputs":[{"name":"_isin","type":"string","internalType":"string"},{"name":"_couponDuration","type":"uint256","internalType":"uint256"},{"name":"_couponYield","type":"uint256","internalType":"uint256"}],"outputs":[],"stateMutability":"nonpayable"},{"type":"function","name":"extendPartitionOffering","inputs":[{"name":"_isin","type":"string","internalType":"string"},{"name":"_additionalOffering","type":"uint256","internalType":"uint256"}],"outputs":[],"stateMutability":"nonpayable"},{"type":"function","name":"getCouponDetails","inputs":[{"name":"_isin","type":"string","internalType":"string"}],"outputs":[{"name":"_couponDuration","type":"uint256","internalType":"uint256"},{"name":"_couponYield","type":"uint256","internalType":"uint256"},{"name":"_maturityDuration","type":"uint256","internalType":"uint256"},{"name":"_lastCouponPayment","type":"uint256","internalType":"uint256"},{"name":"_couponPaymentCount","type":"uint256","internalType":"uint256"}],"stateMutability":"view"},{"type":"function","name":"getRoleAdmin","inputs":[{"name":"role","type":"bytes32","internalType":"bytes32"}],"outputs":[{"name":"","type":"bytes32","internalType":"bytes32"}],"stateMutability":"view"},{"type":"function","name":"grantRole","inputs":[{"name":"role","type":"bytes32","internalType":"bytes32"},{"name":"account","type":"address","internalType":"address"}],"outputs":[],"stateMutability":"nonpayable"},{"type":"function","name":"granularity","inputs":[],"outputs":[{"name":"granularityValue","type":"uint256","internalType":"uint256"}],"stateMutability":"view"},{"type":"function","name":"hasRole","inputs":[{"name":"role","type":"bytes32","internalType":"bytes32"},{"name":"account","type":"address","internalType":"address"}],"outputs":[{"name":"","type":"bool","internalType":"bool"}],"stateMutability":"view"},{"type":"function","name":"isController","inputs":[{"name":"operator","type":"address","internalType":"address"}],"outputs":[{"name":"isCtrl","type":"bool","internalType":"bool"}],"stateMutability":"view"},{"type":"function","name":"isMatured","inputs":[{"name":"","type":"bytes32","internalType":"bytes32"}],"outputs":[{"name":"","type":"bool","internalType":"bool"}],"stateMutability":"view"},{"type":"function","name":"isOperator","inputs":[{"name":"operator","type":"address","internalType":"address"},{"name":"tokenHolder","type":"address","internalType":"address"}],"outputs":[{"name":"","type":"bool","internalType":"bool"}],"stateMutability":"view"},{"type":"function","name":"isOperatorForPartition","inputs":[{"name":"partition","type":"bytes32","internalType":"bytes32"},{"name":"operator","type":"address","internalType":"address"},{"name":"tokenHolder","type":"address","internalType":"address"}],"outputs":[{"name":"","type":"bool","internalType":"bool"}],"stateMutability":"view"},{"type":"function","name":"isinToPartition","inputs":[{"name":"_isin","type":"string","internalType":"string"}],"outputs":[{"name":"partition","type":"bytes32","internalType":"bytes32"}],"stateMutability":"pure"},{"type":"function","name":"lastCouponPayment","inputs":[{"name":"","type":"bytes32","internalType":"bytes32"}],"outputs":[{"name":"","type":"uint256","internalType":"uint256"}],"stateMutability":"view"},{"type":"function","name":"maturityDate","inputs":[{"name":"","type":"bytes32","internalType":"bytes32"}],"outputs":[{"name":"","type":"uint256","internalType":"uint256"}],"stateMutability":"view"},{"type":"function","name":"maturityDuration","inputs":[{"name":"","type":"bytes32","internalType":"bytes32"}],"outputs":[{"name":"","type":"uint256","internalType":"uint256"}],"stateMutability":"view"},{"type":"function","name":"mintByIsin","inputs":[{"name":"_isin","type":"string","internalType":"string"},{"name":"account","type":"address","internalType":"address"},{"name":"value","type":"uint256","internalType":"uint256"}],"outputs":[],"stateMutability":"nonpayable"},{"type":"function","name":"name","inputs":[],"outputs":[{"name":"","type":"string","internalType":"string"}],"stateMutability":"view"},{"type":"function","name":"operatorTransferByPartition","inputs":[{"name":"partition","type":"bytes32","internalType":"bytes32"},{"name":"from","type":"address","internalType":"address"},{"name":"to","type":"address","internalType":"address"},{"name":"value","type":"uint256","internalType":"uint256"},{"name":"data","type":"bytes","internalType":"bytes"},{"name":"operatorData","type":"bytes","internalType":"bytes"}],"outputs":[{"name":"","type":"bytes32","internalType":"bytes32"}],"stateMutability":"nonpayable"},{"type":"function","name":"partitionOffering","inputs":[{"name":"","type":"bytes32","internalType":"bytes32"}],"outputs":[{"name":"","type":"uint256","internalType":"uint256"}],"stateMutability":"view"},{"type":"function","name":"partitionToIsin","inputs":[{"name":"partition","type":"bytes32","internalType":"bytes32"}],"outputs":[{"name":"","type":"string","internalType":"string"}],"stateMutability":"view"},{"type":"function","name":"partitionsOf","inputs":[{"name":"tokenHolder","type":"address","internalType":"address"}],"outputs":[{"name":"partitions","type":"bytes32[]","internalType":"bytes32[]"}],"stateMutability":"view"},{"type":"function","name":"redeemFor","inputs":[{"name":"_holder","type":"address","internalType":"address"},{"name":"_isin","type":"string","internalType":"string"},{"name":"_value","type":"uint256","internalType":"uint256"},{"name":"_operator","type":"address","internalType":"address"}],"outputs":[],"stateMutability":"nonpayable"},{"type":"function","name":"reducePartitionOffering","inputs":[{"name":"_isin","type":"string","internalType":"string"},{"name":"_reductionAmount","type":"uint256","internalType":"uint256"}],"outputs":[],"stateMutability":"nonpayable"},{"type":"function","name":"renounceRole","inputs":[{"name":"role","type":"bytes32","internalType":"bytes32"},{"name":"callerConfirmation","type":"address","internalType":"address"}],"outputs":[],"stateMutability":"nonpayable"},{"type":"function","name":"revokeOperator","inputs":[{"name":"operator","type":"address","internalType":"address"}],"outputs":[],"stateMutability":"nonpayable"},{"type":"function","name":"revokeOperatorByPartition","inputs":[{"name":"partition","type":"bytes32","internalType":"bytes32"},{"name":"operator","type":"address","internalType":"address"}],"outputs":[],"stateMutability":"nonpayable"},{"type":"function","name":"revokeRole","inputs":[{"name":"role","type":"bytes32","internalType":"bytes32"},{"name":"account","type":"address","internalType":"address"}],"outputs":[],"stateMutability":"nonpayable"},{"type":"function","name":"setMatured","inputs":[{"name":"_isin","type":"string","internalType":"string"}],"outputs":[],"stateMutability":"nonpayable"},{"type":"function","name":"supportsInterface","inputs":[{"name":"interfaceId","type":"bytes4","internalType":"bytes4"}],"outputs":[{"name":"","type":"bool","internalType":"bool"}],"stateMutability":"view"},{"type":"function","name":"symbol","inputs":[],"outputs":[{"name":"","type":"string","internalType":"string"}],"stateMutability":"view"},{"type":"function","name":"totalPartitions","inputs":[],"outputs":[{"name":"partitions","type":"bytes32[]","internalType":"bytes32[]"}],"stateMutability":"view"},{"type":"function","name":"totalSupply","inputs":[],"outputs":[{"name":"supply","type":"uint256","internalType":"uint256"}],"stateMutability":"view"},{"type":"function","name":"totalSupplyByPartition","inputs":[{"name":"partition","type":"bytes32","internalType":"bytes32"}],"outputs":[{"name":"supply","type":"uint256","internalType":"uint256"}],"stateMutability":"view"},{"type":"function","name":"transferByPartition","inputs":[{"name":"partition","type":"bytes32","internalType":"bytes32"},{"name":"to","type":"address","internalType":"address"},{"name":"value","type":"uint256","internalType":"uint256"},{"name":"data","type":"bytes","internalType":"bytes"}],"outputs":[{"name":"","type":"bytes32","internalType":"bytes32"}],"stateMutability":"nonpayable"},{"type":"function","name":"updateCouponPayment","inputs":[{"name":"_isin","type":"string","internalType":"string"},{"name":"_timestamp","type":"uint256","internalType":"uint256"},{"name":"_paymentCount","type":"uint256","internalType":"uint256"}],"outputs":[],"stateMutability":"nonpayable"},{"type":"event","name":"AuthorizedOperator","inputs":[{"name":"operator","type":"address","indexed":true,"internalType":"address"},{"name":"tokenHolder","type":"address","indexed":true,"internalType":"address"}],"anonymous":false},{"type":"event","name":"AuthorizedOperatorByPartition","inputs":[{"name":"partition","type":"bytes32","indexed":true,"internalType":"bytes32"},{"name":"operator","type":"address","indexed":true,"internalType":"address"},{"name":"tokenHolder","type":"address","indexed":true,"internalType":"address"}],"anonymous":false},{"type":"event","name":"ChangedPartition","inputs":[{"name":"fromPartition","type":"bytes32","indexed":true,"internalType":"bytes32"},{"name":"toPartition","type":"bytes32","indexed":true,"internalType":"bytes32"},{"name":"value","type":"uint256","indexed":false,"internalType":"uint256"}],"anonymous":false},{"type":"event","name":"IsinEnabled","inputs":[{"name":"isin","type":"string","indexed":false,"internalType":"string"},{"name":"couponDuration","type":"uint256","indexed":false,"internalType":"uint256"},{"name":"couponYield","type":"uint256","indexed":false,"internalType":"uint256"}],"anonymous":false},{"type":"event","name":"IsinExtended","inputs":[{"name":"isin","type":"string","indexed":false,"internalType":"string"},{"name":"delta","type":"uint256","indexed":false,"internalType":"uint256"},{"name":"newOffering","type":"uint256","indexed":false,"internalType":"uint256"}],"anonymous":false},{"type":"event","name":"IsinIssued","inputs":[{"name":"isin","type":"string","indexed":false,"internalType":"string"},{"name":"offering","type":"uint256","indexed":false,"internalType":"uint256"}],"anonymous":false},{"type":"event","name":"IsinMinted","inputs":[{"name":"isin","type":"string","indexed":false,"internalType":"string"},{"name":"dst","type":"address","indexed":false,"internalType":"address"},{"name":"value","type":"uint256","indexed":false,"internalType":"uint256"}],"anonymous":false},{"type":"event","name":"IsinRedeemed","inputs":[{"name":"isin","type":"string","indexed":false,"internalType":"string"},{"name":"holder","type":"address","indexed":true,"internalType":"address"},{"name":"value","type":"uint256","indexed":false,"internalType":"uint256"},{"name":"operator","type":"address","indexed":false,"internalType":"address"}],"anonymous":false},{"type":"event","name":"IsinReduced","inputs":[{"name":"isin","type":"string","indexed":false,"internalType":"string"},{"name":"delta","type":"uint256","indexed":false,"internalType":"uint256"},{"name":"newOffering","type":"uint256","indexed":false,"internalType":"uint256"}],"anonymous":false},{"type":"event","name":"RevokedOperator","inputs":[{"name":"operator","type":"address","indexed":true,"internalType":"address"},{"name":"tokenHolder","type":"address","indexed":true,"internalType":"address"}],"anonymous":false},{"type":"event","name":"RevokedOperatorByPartition","inputs":[{"name":"partition","type":"bytes32","indexed":true,"internalType":"bytes32"},{"name":"operator","type":"address","indexed":true,"internalType":"address"},{"name":"tokenHolder","type":"address","indexed":true,"internalType":"address"}],"anonymous":false},{"type":"event","name":"RoleAdminChanged","inputs":[{"name":"role","type":"bytes32","indexed":true,"internalType":"bytes32"},{"name":"previousAdminRole","type":"bytes32","indexed":true,"internalType":"bytes32"},{"name":"newAdminRole","type":"bytes32","indexed":true,"internalType":"bytes32"}],"anonymous":false},{"type":"event","name":"RoleGranted","inputs":[{"name":"role","type":"bytes32","indexed":true,"internalType":"bytes32"},{"name":"account","type":"address","indexed":true,"internalType":"address"},{"name":"sender","type":"address","indexed":true,"internalType":"address"}],"anonymous":false},{"type":"event","name":"RoleRevoked","inputs":[{"name":"role","type":"bytes32","indexed":true,"internalType":"bytes32"},{"name":"account","type":"address","indexed":true,"internalType":"address"},{"name":"sender","type":"address","indexed":true,"internalType":"address"}],"anonymous":false},{"type":"event","name":"TransferByPartition","inputs":[{"name":"fromPartition","type":"bytes32","indexed":true,"internalType":"bytes32"},{"name":"operator","type":"address","indexed":false,"internalType":"address"},{"name":"from","type":"address","indexed":false,"internalType":"address"},{"name":"to","type":"address","indexed":false,"internalType":"address"},{"name":"value","type":"uint256","indexed":false,"internalType":"uint256"},{"name":"data","type":"bytes","indexed":false,"internalType":"bytes"},{"name":"operatorData","type":"bytes","indexed":false,"internalType":"bytes"}],"anonymous":false},{"type":"error","name":"AccessControlBadConfirmation","inputs":[]},{"type":"error","name":"AccessControlUnauthorizedAccount","inputs":[{"name":"account","type":"address","internalType":"address"},{"name":"neededRole","type":"bytes32","internalType":"bytes32"}]},{"type":"error","name":"AdditionalOfferingZero","inputs":[]},{"type":"error","name":"ControllerAddressZero","inputs":[]},{"type":"error","name":"ControllerZeroAddress","inputs":[]},{"type":"error","name":"CouponDurationZero","inputs":[]},{"type":"error","name":"CouponYieldZero","inputs":[]},{"type":"error","name":"DuplicatePartition","inputs":[{"name":"isin","type":"string","internalType":"string"}]},{"type":"error","name":"ExceedsOffering","inputs":[{"name":"isin","type":"string","internalType":"string"},{"name":"currentSupply","type":"uint256","internalType":"uint256"},{"name":"mintAmount","type":"uint256","internalType":"uint256"},{"name":"offering","type":"uint256","internalType":"uint256"}]},{"type":"error","name":"InsufficientBalance","inputs":[]},{"type":"error","name":"InsufficientPartitionBalance","inputs":[]},{"type":"error","name":"InvalidAmount","inputs":[]},{"type":"error","name":"InvalidGranularity","inputs":[]},{"type":"error","name":"InvalidHolder","inputs":[{"name":"holder","type":"address","internalType":"address"}]},{"type":"error","name":"InvalidRecipient","inputs":[]},{"type":"error","name":"MaturityDateZero","inputs":[]},{"type":"error","name":"MaturityDurationZero","inputs":[]},{"type":"error","name":"NotMatured","inputs":[{"name":"isin","type":"string","internalType":"string"},{"name":"maturityDate","type":"uint256","internalType":"uint256"},{"name":"currentTime","type":"uint256","internalType":"uint256"}]},{"type":"error","name":"NotMultipleOfGranularity","inputs":[]},{"type":"error","name":"OfferingZero","inputs":[]},{"type":"error","name":"PartitionNotActive","inputs":[{"name":"isin","type":"string","internalType":"string"}]},{"type":"error","name":"ReductionAmountZero","inputs":[]},{"type":"error","name":"ReductionBelowSupply","inputs":[{"name":"currentSupply","type":"uint256","internalType":"uint256"},{"name":"offeringAfterReduction","type":"uint256","internalType":"uint256"}]},{"type":"error","name":"ReductionExceedsOffering","inputs":[{"name":"offering","type":"uint256","internalType":"uint256"},{"name":"reduction","type":"uint256","internalType":"uint256"}]},{"type":"error","name":"UnauthorizedOperator","inputs":[]}],"bytecode":{"object":"0x60a06040523461034b576130188038038061001981610350565b92833981019060408183031261034b5780516001600160401b03811161034b5782610045918301610375565b60208201519092906001600160401b03811161034b576100659201610375565b81516001600160401b03811161025857600054600181811c91168015610341575b602082101461023857601f81116102dd575b50602092601f8211600114610279579281929360009261026e575b50508160011b916000199060031b1c1916176000555b80516001600160401b03811161025857600154600181811c9116801561024e575b602082101461023857601f81116101d3575b50602091601f821160011461016f57918192600092610164575b50508160011b916000199060031b1c1916176001555b600160805261013a336103e0565b506101443361045c565b50604051612ac390816104f58239608051818181610e4401526127e20152f35b015190503880610116565b601f198216926001600052806000209160005b8581106101bb575083600195106101a2575b505050811b0160015561012c565b015160001960f88460031b161c19169055388080610194565b91926020600181928685015181550194019201610182565b60016000527fb10e2d527612073b26eecdfd717e6a320cf44b4afac2b0732d9fcbe2b7fa0cf6601f830160051c8101916020841061022e575b601f0160051c01905b81811061022257506100fc565b60008155600101610215565b909150819061020c565b634e487b7160e01b600052602260045260246000fd5b90607f16906100ea565b634e487b7160e01b600052604160045260246000fd5b0151905038806100b3565b601f1982169360008052806000209160005b8681106102c557508360019596106102ac575b505050811b016000556100c9565b015160001960f88460031b161c1916905538808061029e565b9192602060018192868501518155019401920161028b565b600080527f290decd9548b62a8d60345a988386fc84ba6bc95484008f6362f93160ef3e563601f830160051c81019160208410610337575b601f0160051c01905b81811061032b5750610098565b6000815560010161031e565b9091508190610315565b90607f1690610086565b600080fd5b6040519190601f01601f191682016001600160401b0381118382101761025857604052565b81601f8201121561034b578051906001600160401b038211610258576103a4601f8301601f1916602001610350565b928284526020838301011161034b5760005b8281106103cb57505060206000918301015290565b806020809284010151828287010152016103b6565b6001600160a01b0381166000908152600080516020612ff8833981519152602052604090205460ff16610456576001600160a01b03166000818152600080516020612ff883398151915260205260408120805460ff19166001179055339190600080516020612fb88339815191528180a4600190565b50600090565b6001600160a01b0381166000908152600080516020612fd8833981519152602052604090205460ff16610456576001600160a01b03166000818152600080516020612fd883398151915260205260408120805460ff191660011790553391907f346a462b941801e41f0bb4df9e243354177778dec1dca24bd9ee2879b66c271a90600080516020612fb88339815191529080a460019056fe608080604052600436101561001357600080fd5b60003560e01c90816301ffc9a7146118f15750806303c53c891461186757806304b96f9f14611811578063065dad8f146117e557806306fdde03146117c7578063075e5bd1146116b15780630e8adb2f14611685578063103ef9e1146116075780631593d966146115d6578063168ecec51461155b57806316bf8daf146114c857806318160ddd146114aa5780632354d9d81461147e578063248a9ca3146114515780632e0f2625146113ad5780632f2ff15d1461141157806330e82803146113c9578063313ce567146113ad57806335bd2b241461136e57806336568abe1461132857806338ce16db146112fc5780633acc2adf146110ae5780633e183d52146110825780634ba85b9614610e67578063556f0dc714610e2c5780635cfc079b14610e00578063606f1ecb14610db257806364bc622314610d8657806369598efe14610d0f5780636d77cad614610ce057806370a0823114610ca6578063740ab8f414610c235780637cc0c3a714610b57578063898cb91514610b1d5780638c0dee9c14610a4057806391d14854146109f3578063959b8c3f1461097f57806395d89b411461089a578063a217fddf14610407578063a26734dc1461086e578063a7fc7a07146107dc578063a8a934a61461077d578063b429afeb1461073e578063b6363cf214610708578063b98ffebe1461040c578063c3f9213c14610407578063d547741f146103c0578063eae06d38146103a3578063ec65813114610372578063f3d490db146102fd578063fa69cb0c146102d15763fad8b32a1461025b57600080fd5b346102cc5760203660031901126102cc57610274611b6a565b336000818152600c602090815260408083206001600160a01b0395909516808452949091528120805460ff191690559091907f50546e66e5f44d728365dc3908c63bc5cfeeab470722c1677e3073a6ac294aa19080a3005b600080fd5b346102cc5760203660031901126102cc5760043560005260176020526020604060002054604051908152f35b346102cc5760803660031901126102cc57600435610319611b3e565b606435906001600160401b0382116102cc5760209261034961034261036a943690600401611c45565b369161197f565b9060405192610358868561195e565b600084526044359133903390806124e2565b604051908152f35b346102cc5760203660031901126102cc576004356000526018602052602060ff604060002054166040519015158152f35b346102cc5760003660031901126102cc5760206040516103e88152f35b346102cc5760403660031901126102cc576104056004356103df611b3e565b906104006103fb82600052600e60205260016040600020015490565b612113565b6122b3565b005b611c72565b346102cc5761041a36611b09565b91906104246120a1565b61042d82611d55565b80600052600f60205260ff604060002054166106e25781156106d15783156106c057806000526010602052604060002083516001600160401b0381116106aa5761047782546119e3565b601f8111610662575b50806020601f82116001146105ff576000916105f4575b508160011b916000199060031b1c19161790555b80600052600f60205260ff604060002054166105455791610539916105257f76e88a2fd62955ced7126be523c010311078b32752576037447c0db5f2a870ef94600096818852600f60205260408820600160ff19825416179055818852601160205283604089205581885260126020526040882055612777565b604051928392604084526040840190611ae4565b9060208301520390a180f35b60005260106020526040600020604051809163e7ffd5cb60e01b825260206004830152600090805490610577826119e3565b918260248601526001811690816000146105d6575060011461059a575b50500390fd5b6000908152602081209092505b8183106105bc57505081016044018380610594565b8054604484870101528493506020909201916001016105a7565b9150506044925060ff191682840152151560051b8201018380610594565b905085015187610497565b60008481528181209250601f198416905b81811061064a57509083600194939210610631575b5050811b0190556104ab565b87015160001960f88460031b161c191690558780610625565b9192602060018192868c015181550194019201610610565b826000526020600020601f830160051c810191602084106106a0575b601f0160051c01905b8181106106945750610480565b60008155600101610687565b909150819061067e565b634e487b7160e01b600052604160045260246000fd5b630a6dc29760e11b60005260046000fd5b635473cfdf60e01b60005260046000fd5b60405163e7ffd5cb60e01b815260206004820152806107046024820186611ae4565b0390fd5b346102cc5760403660031901126102cc576020610734610726611b6a565b61072e611b3e565b90612041565b6040519015158152f35b346102cc5760203660031901126102cc576001600160a01b0361075f611b6a565b16600052600b602052602060ff604060002054166040519015158152f35b346102cc577f63080b89e98bb8e65a0f4e6a01ae25162e5bb0b7e417d3979a328485a590a0ce6107ac36611bda565b906107b56120a1565b6107d76107cb83836107c681611d55565b612439565b60405193849384611c8e565b0390a1005b346102cc5760203660031901126102cc576107f5611b6a565b3360009081527f85ec20d9853374649daa8ceb79b4cf9bfb3d4898a5afec8f714b40ccc63721cf602052604090205460ff16156108355761040590611e18565b63e2517d3f60e01b600052336004527f346a462b941801e41f0bb4df9e243354177778dec1dca24bd9ee2879b66c271a60245260446000fd5b346102cc5760203660031901126102cc5760043560005260046020526020604060002054604051908152f35b346102cc5760003660031901126102cc5760405160006001546108bc816119e3565b808452906001811690811561095b57506001146108fc575b6108f8836108e48185038261195e565b604051918291602083526020830190611ae4565b0390f35b600160009081527fb10e2d527612073b26eecdfd717e6a320cf44b4afac2b0732d9fcbe2b7fa0cf6939250905b808210610941575090915081016020016108e46108d4565b919260018160209254838588010152019101909291610929565b60ff191660208086019190915291151560051b840190910191506108e490506108d4565b346102cc5760203660031901126102cc57610998611b6a565b336000818152600c602090815260408083206001600160a01b0395909516808452949091528120805460ff191660011790559091907ff4caeb2d6ca8932a215a353d0703c326ec2d81fc68170f320eb2ab49e9df61f99080a3005b346102cc5760403660031901126102cc57610a0c611b3e565b600435600052600e60205260406000209060018060a01b0316600052602052602060ff604060002054166040519015158152f35b346102cc5760c03660031901126102cc57600435610a5c611b3e565b610a64611b54565b916084356001600160401b0381116102cc57610a84903690600401611c45565b60a4949194356001600160401b0381116102cc57610aa6903690600401611c45565b929094610ab4813387611d00565b15610b0c5760209661036a96610ae891610ae0908a871080610b0457813590610af4575b96369161197f565b95369161197f565b946064359333916124e2565b600019888d0360031b1b16610ad8565b508896610342565b6326b9cdff60e11b60005260046000fd5b346102cc5760203660031901126102cc576004356001600160401b0381116102cc5761036a610b5260209236906004016119c5565b611d55565b346102cc5760003660031901126102cc57604051806020600a5492838152018092600a6000527fc65a7bb8d6351c1cf70c95a316cc6a92839c986682d98bc35f958f4883f9d2a89060005b818110610c045750505081610bb891038261195e565b6040519182916020830190602084525180915260408301919060005b818110610be2575050500390f35b82516001600160a01b0316845285945060209384019390920191600101610bd4565b82546001600160a01b0316845260209093019260019283019201610ba2565b346102cc5760203660031901126102cc576001600160a01b03610c44611b6a565b166000526005602052604060002060405190816020825491828152019160005260206000209060005b818110610c90576108f885610c848187038261195e565b60405191829182611c0b565b8254845260209093019260019283019201610c6d565b346102cc5760203660031901126102cc576001600160a01b03610cc7611b6a565b1660005260026020526020604060002054604051908152f35b346102cc5760603660031901126102cc576020610734610cfe611b3e565b610d06611b54565b90600435611d00565b346102cc5760003660031901126102cc5760405180602060085491828152019060086000527ff3f7a9fe364faab93b216da50a3214154f22a0a2b415b23a84c8169e8b636ee39060005b818110610d70576108f885610c848187038261195e565b8254845260209093019260019283019201610d59565b346102cc5760203660031901126102cc5760043560005260126020526020604060002054604051908152f35b346102cc577f5f2212e7dbba7734f1a0579ee979f3df1a1e173c42f257bcbbcc4c2570208682610de136611bda565b90610dea6120a1565b6107d76107cb8383610dfb81611d55565b612346565b346102cc5760203660031901126102cc5760043560005260166020526020604060002054604051908152f35b346102cc5760003660031901126102cc5760206040517f00000000000000000000000000000000000000000000000000000000000000008152f35b346102cc57610e7536611b80565b9291610e7f6120a1565b610e8881611d55565b9384600052600f60205260ff60406000205416156110605760209060405195610eb1838861195e565b60008752604051610ec2848261195e565b600081526001600160a01b03871697881561104b57861561103a57610ee6876127e0565b886000526007855260406000208360005285528660406000205410611029577f5b625669ec3753eb313512d57ae13aab5877c09add12c862223522b65a066d6b97610ff87fff4e9a26af4eb73b8bacfaa4abd4fea03d9448e7b912dc5ff4019048875aa2d49389936004611007998e610f6188600354612339565b60035580600052600282526040600020610f7c898254612339565b9055806000526007825260406000208a60005282526040600020610fa1898254612339565b9055896000528282526040600020610fba898254612339565b90556000526007815260406000208960005281526040600020541561101a575b88600052526040600020541561100c575b6040519485948986612496565b0390a260405193849384611cb0565b0390a2005b6110158761295c565b610feb565b6110248987612836565b610fda565b6304f6a5fd60e01b60005260046000fd5b63162908e360e11b60005260046000fd5b886378b27f2360e11b60005260045260246000fd5b60405163ee56ccd360e01b815260206004820152806107046024820185611ae4565b346102cc5760203660031901126102cc5760043560005260146020526020604060002054604051908152f35b346102cc5760603660031901126102cc576004356001600160401b0381116102cc576110de9036906004016119c5565b6110e6611b3e565b604435916110f26120a1565b6110fb81611d55565b9283600052600f60205260ff6040600020541615611060578360005260046020526040600020548460005260116020526040600020548061113c8484611cdd565b116112c257505060209060405193611154838661195e565b6000855260405195611166848861195e565b600087526001600160a01b0382169182156112b157831561103a5761127e6112a39761128c7f8745706ffff113c774f9a626a8fae895bee3aee2a0134f255c5edc839e129a049a611249867fff4e9a26af4eb73b8bacfaa4abd4fea03d9448e7b912dc5ff4019048875aa2d4966111dc8b6127e0565b6111e88b600354611cdd565b6003558960005260028c5260406000206112038c8254611cdd565b90558960005260078c526040600020826000528c5260406000206112288c8254611cdd565b90558160005260048c5260406000206112428c8254611cdd565b9055612a18565b61125286612777565b60405193849333855260008b86015288604086015289606086015260c0608086015260c0850190611ae4565b9083820360a0850152611ae4565b0390a2604051948594606086526060860190611ae4565b9284015260408301520390a1005b634e46966960e11b60005260046000fd5b604051630f18e4cb60e31b815260806004820152938493906112e8906084860190611ae4565b926024850152604484015260648301520390fd5b346102cc5760203660031901126102cc5760043560005260106020526108f86108e46040600020611a1d565b346102cc5760403660031901126102cc57611341611b3e565b336001600160a01b0382160361135d57610405906004356122b3565b63334bd91960e11b60005260046000fd5b346102cc5761138a61137f36611b09565b929091610b526120a1565b908160005260166020526040600020556000526017602052604060002055600080f35b346102cc5760003660031901126102cc57602060405160128152f35b346102cc5760403660031901126102cc576001600160a01b036113ea611b3e565b16600052600760205260406000206004356000526020526020604060002054604051908152f35b346102cc5760403660031901126102cc57610405600435611430611b3e565b9061144c6103fb82600052600e60205260016040600020015490565b612224565b346102cc5760203660031901126102cc57602061036a600435600052600e60205260016040600020015490565b346102cc5760203660031901126102cc5760043560005260156020526020604060002054604051908152f35b346102cc5760003660031901126102cc576020600354604051908152f35b346102cc576114d636611b80565b92916114e06120a1565b6114e981611d55565b9384600052600f60205260ff60406000205416156110605784600052601860205260ff60406000205416156115295760209060405195610eb1838861195e565b6040516247cffb60e61b8152606060048201528061154a6064820185611ae4565b600060248301524260448301520390fd5b346102cc5760403660031901126102cc57600435611577611b3e565b336000818152600d6020908152604080832086845282528083206001600160a01b03909516808452949091528120805460ff191690559092907f3b287c4f1bab4df949b33bceacef984f544dc5d5479930d00e4ee8c9d8dd96f29080a4005b346102cc5760203660031901126102cc57600435600052600f602052602060ff604060002054166040519015158152f35b346102cc5760403660031901126102cc57600435611623611b3e565b336000818152600d6020908152604080832086845282528083206001600160a01b03909516808452949091528120805460ff191660011790559092907f3646a897c70797ecc134b0adc32f471b07bf1d6f451133b0384badab531e3fd69080a4005b346102cc5760203660031901126102cc5760043560005260116020526020604060002054604051908152f35b346102cc576116bf36611b09565b916116c86120a1565b6116d181611d55565b9283600052600f60205260ff60406000205416156110605782156117b65780156117a5578360005260146020528260406000205583600052601560205280604060002055836000526012602052604060002054908115611794577f2331e28b60a6ff0887ad684a7d8705d7e4178f7b2fac5ab744ad78c22478eef39461175a6107d79342611cdd565b8160005260136020526040600020558060005260166020524260406000205560005260176020526000604081205560405193849384611c8e565b6340cf559360e01b60005260046000fd5b63a887255160e01b60005260046000fd5b631996e5d160e31b60005260046000fd5b346102cc5760003660031901126102cc576108f86108e46000611a1d565b346102cc5760203660031901126102cc5760043560005260136020526020604060002054604051908152f35b346102cc5760203660031901126102cc576004356001600160401b0381116102cc5761184461184c9136906004016119c5565b610b526120a1565b6000908152601860205260409020805460ff19166001179055005b346102cc5760203660031901126102cc576004356001600160401b0381116102cc5761189c610b5260a09236906004016119c5565b6000908152601460209081526040808320546015835281842054601284528285205460168552838620546017865295849020548451938452948301919091529181019190915260608101929092526080820152f35b346102cc5760203660031901126102cc576004359063ffffffff60e01b82168092036102cc57602091637965db0b60e01b8114908115611933575b5015158152f35b634358ab9560e01b81149150811561194d575b508361192c565b6301ffc9a760e01b14905083611946565b90601f801991011681019081106001600160401b038211176106aa57604052565b9291926001600160401b0382116106aa57604051916119a8601f8201601f19166020018461195e565b8294818452818301116102cc578281602093846000960137010152565b9080601f830112156102cc578160206119e09335910161197f565b90565b90600182811c92168015611a13575b60208310146119fd57565b634e487b7160e01b600052602260045260246000fd5b91607f16916119f2565b9060405191826000825492611a31846119e3565b8084529360018116908115611a9f5750600114611a58575b50611a569250038361195e565b565b90506000929192526020600020906000915b818310611a83575050906020611a569282010138611a49565b6020919350806001915483858901015201910190918492611a6a565b905060209250611a5694915060ff191682840152151560051b82010138611a49565b60005b838110611ad45750506000910152565b8181015183820152602001611ac4565b90602091611afd81518092818552858086019101611ac1565b601f01601f1916010190565b60606003198201126102cc57600435906001600160401b0382116102cc57611b33916004016119c5565b906024359060443590565b602435906001600160a01b03821682036102cc57565b604435906001600160a01b03821682036102cc57565b600435906001600160a01b03821682036102cc57565b9060806003198301126102cc576004356001600160a01b03811681036102cc5791602435906001600160401b0382116102cc57611bbf916004016119c5565b90604435906064356001600160a01b03811681036102cc5790565b60406003198201126102cc57600435906001600160401b0382116102cc57611c04916004016119c5565b9060243590565b602060408183019282815284518094520192019060005b818110611c2f5750505090565b8251845260209384019390920191600101611c22565b9181601f840112156102cc578235916001600160401b0383116102cc57602083818601950101116102cc57565b346102cc5760003660031901126102cc57602060405160008152f35b611ca660409295949395606083526060830190611ae4565b9460208201520152565b919392611cc7604092606085526060850190611ae4565b60208401959095526001600160a01b0316910152565b91908201809211611cea57565b634e487b7160e01b600052601160045260246000fd5b611d0a8383612041565b928315611d18575b50505090565b6001600160a01b039081166000908152600d60209081526040808320948352938152838220929094168152925290205460ff169050388080611d12565b604051611d8360208281611d728183019687815193849201611ac1565b81010301601f19810183528261195e565b51902090565b6001600160401b0381116106aa5760051b60200190565b600a54811015611dbb57600a60005260206000200190600090565b634e487b7160e01b600052603260045260246000fd5b600854811015611dbb57600860005260206000200190600090565b8054821015611dbb5760005260206000200190600090565b8051821015611dbb5760209160051b010190565b6001600160a01b03811690811561203057611e3290612150565b5080600052600b60205260ff6040600020541661202d57600a54906001820191828111611cea57611e6283611d89565b92611e70604051948561195e565b808452611e7f601f1991611d89565b0136602085013760005b8181106120025750611e9b9083611e04565b5260005b600a54811015611ede5780611eb5600192611da0565b838060a01b0391549060031b1c16600052600b602052604060002060ff19815416905501611e9f565b50600a546000600a5580611fa0575b5060005b8151811015611f9c576001600160a01b03611f0c8284611e04565b5116908115611f8b5781600052600b60205260ff60406000205416611f8257600a5491600160401b8310156106aa57611f4c836001809501600a55611da0565b81549060031b9083821b91868060a01b03901b1916179055600052600b60205260406000208260ff198254161790555b01611ef1565b60019150611f7c565b634dfbee8160e11b60005260046000fd5b5050565b600a6000527fc65a7bb8d6351c1cf70c95a316cc6a92839c986682d98bc35f958f4883f9d2a8017fc65a7bb8d6351c1cf70c95a316cc6a92839c986682d98bc35f958f4883f9d2a85b818110611ff65750611eed565b60008155600101611fe9565b8061200e600192611da0565b838060a01b0391549060031b1c166120268287611e04565b5201611e89565b50565b63d2af146b60e01b60005260046000fd5b6001600160a01b03918216911681811491821561207a575b508115612064575090565b9050600052600b60205260ff6040600020541690565b909150600052600c60205260406000208160005260205260ff604060002054169038612059565b3360009081527f31277ab360aa7149d76d9964a7fc313e6cf14d70df6d8662518f2337001a807e602052604090205460ff16156120da57565b63e2517d3f60e01b600052336004527f769cf9b16711a573abffaad1859460504b505c0b858cbcb0ac291a3eb7393f9760245260446000fd5b6000818152600e6020908152604080832033845290915290205460ff16156121385750565b63e2517d3f60e01b6000523360045260245260446000fd5b6001600160a01b03811660009081527f31277ab360aa7149d76d9964a7fc313e6cf14d70df6d8662518f2337001a807e602052604090205460ff1661221e576001600160a01b031660008181527f31277ab360aa7149d76d9964a7fc313e6cf14d70df6d8662518f2337001a807e60205260408120805460ff191660011790553391907f769cf9b16711a573abffaad1859460504b505c0b858cbcb0ac291a3eb7393f97907f2f8788117e7eff1d82e926ec794901d17c78024a50270940304540a733656f0d9080a4600190565b50600090565b6000818152600e602090815260408083206001600160a01b038616845290915290205460ff166122ac576000818152600e602090815260408083206001600160a01b0395909516808452949091528120805460ff19166001179055339291907f2f8788117e7eff1d82e926ec794901d17c78024a50270940304540a733656f0d9080a4600190565b5050600090565b6000818152600e602090815260408083206001600160a01b038616845290915290205460ff16156122ac576000818152600e602090815260408083206001600160a01b0395909516808452949091528120805460ff19169055339291907ff6391f5c32d9c69d2a47ea670b442974b53935d1edc7fd64eb21e047a839171b9080a4600190565b91908203918211611cea57565b9091600092828452600f60205260ff6040852054161561241457508015612403578183526011602052826040812054936123e75750816000526004602052604060002054928181106123d0579061239c91612339565b918083106123b7575060005260116020528060406000205590565b90506325bcc9c560e11b60005260045260245260446000fd5b633eb4b1d960e01b60005260045260245260446000fd5b926040916123f491611cdd565b92839281526011602052205590565b63019e607d60e41b60005260046000fd5b60405163ee56ccd360e01b815260206004820152908190610704906024830190611ae4565b9081600052600f60205260ff60406000205416156124145750811561248557600081815260116020526040902054916124729192611cdd565b9060005260116020528060406000205590565b6301573afb60e51b60005260046000fd5b6001600160a01b0391821681529116602082015260006040820152606081019190915260c0608082018190526119e09391926124d491840190611ae4565b9160a0818403910152611ae4565b9096959094939290916001600160a01b03841680156112b157889761127e7fff4e9a26af4eb73b8bacfaa4abd4fea03d9448e7b912dc5ff4019048875aa2d49561256d936125348a8c9a898f8d6125b0565b60405196879660018060a01b0316875260018060a01b03166020870152604086015288606086015260c0608086015260c0850190611ae4565b0390a282820361257d5750505090565b60207f67c8ba31d2dd11f1384577b3405b04ed91eed1231e408432ad2458cab37b2fa191604051908152a3803880611d12565b9392916125bc846127e0565b6001600160a01b0381166000818152600260205260409020548511612766578060005260076020526040600020866000526020528460406000205410611029576001600160a01b03841681811495909490861561272b575b84881480978198612723575b50612719576126d8956126d394848795600052600760205260406000208b6000526020526040600020612654858254612339565b90558a6000526004602052604060002061266f858254612339565b9055600052600760205260406000208a6000526020528960406000205415612709575b5050600052600760205260406000208360005260205260406000206126b8828254611cdd565b90558260005260046020526112426040600020918254611cdd565b612777565b816000526004602052604060002054159081612700575b506126f75750565b611a569061295c565b905015386126ef565b61271291612836565b3889612692565b5050505050505050565b905038612620565b8260005260026020526040600020612744828254612339565b9055856000526002602052604060002061275f828254611cdd565b9055612614565b631e9acf1760e31b60005260046000fd5b8060005260096020526040600020541561278e5750565b600854600160401b8110156106aa576127ca6127b38260018594016008556008611dec565b819391549060031b91821b91600019901b19161790565b9055600854906000526009602052604060002055565b7f0000000000000000000000000000000000000000000000000000000000000000908115612820570661280f57565b63526a208360e01b60005260046000fd5b634e487b7160e01b600052601260045260246000fd5b60018060a01b03168060005260066020526040600020826000526020526040600020548015612957578160005260056020526040600020548082036128e0575b50508060005260056020526040600020805480156128ca57600019019061289d8282611dec565b8154906000199060031b1b1916905555600052600660205260406000209060005260205260006040812055565b634e487b7160e01b600052603160045260246000fd5b8260005260056020526040600020906000198101908111611cea5761290491611dec565b90549060031b1c82600052600560205260406000206000198301838111611cea576127b3612933918493611dec565b90558260005260066020526040600020906000526020526040600020553880612876565b505050565b80600052600460205260406000205461202d578060005260096020526040600020548015611f9c576008548082036129cc575b505060085480156128ca57600019016129a9816008611dec565b8154906000199060031b1b19169055600855600052600960205260006040812055565b6000198101908111611cea576129e190611dd1565b90549060031b1c6000198201828111611cea57612a016127b38392611dd1565b90556000526009602052604060002055388061298f565b60018060a01b03169081600052600760205260406000208160005260205260406000205415611f9c5781600052600660205260406000208160005260205260406000205415612a65575050565b81600052600560205260406000208054600160401b8110156106aa576127b38184936001612a9594018155611dec565b9055816000526005602052604060002054916000526006602052604060002090600052602052604060002055562f8788117e7eff1d82e926ec794901d17c78024a50270940304540a733656f0d85ec20d9853374649daa8ceb79b4cf9bfb3d4898a5afec8f714b40ccc63721cfe710864318d4a32f37d6ce54cb3fadbef648dd12d8dbdf53973564d56b7f881c","linkReferences":{}},"methodIdentifiers":{"DECIMALS()":"2e0f2625","DEFAULT_ADMIN_ROLE()":"a217fddf","DEFAULT_PARTITION()":"c3f9213c","UNIT_NOMINAL()":"eae06d38","activePartitions(bytes32)":"1593d966","addController(address)":"a7fc7a07","authorizeOperator(address)":"959b8c3f","authorizeOperatorByPartition(bytes32,address)":"103ef9e1","balanceOf(address)":"70a08231","balanceOfByPartition(bytes32,address)":"30e82803","buybackRedeemFor(address,string,uint256,address)":"4ba85b96","controllers()":"7cc0c3a7","couponDuration(bytes32)":"3e183d52","couponPaymentCount(bytes32)":"fa69cb0c","couponYield(bytes32)":"2354d9d8","createPartition(string,uint256,uint256)":"b98ffebe","decimals()":"313ce567","enableByIsin(string,uint256,uint256)":"075e5bd1","extendPartitionOffering(string,uint256)":"a8a934a6","getCouponDetails(string)":"03c53c89","getRoleAdmin(bytes32)":"248a9ca3","grantRole(bytes32,address)":"2f2ff15d","granularity()":"556f0dc7","hasRole(bytes32,address)":"91d14854","isController(address)":"b429afeb","isMatured(bytes32)":"ec658131","isOperator(address,address)":"b6363cf2","isOperatorForPartition(bytes32,address,address)":"6d77cad6","isinToPartition(string)":"898cb915","lastCouponPayment(bytes32)":"5cfc079b","maturityDate(bytes32)":"065dad8f","maturityDuration(bytes32)":"64bc6223","mintByIsin(string,address,uint256)":"3acc2adf","name()":"06fdde03","operatorTransferByPartition(bytes32,address,address,uint256,bytes,bytes)":"8c0dee9c","partitionOffering(bytes32)":"0e8adb2f","partitionToIsin(bytes32)":"38ce16db","partitionsOf(address)":"740ab8f4","redeemFor(address,string,uint256,address)":"16bf8daf","reducePartitionOffering(string,uint256)":"606f1ecb","renounceRole(bytes32,address)":"36568abe","revokeOperator(address)":"fad8b32a","revokeOperatorByPartition(bytes32,address)":"168ecec5","revokeRole(bytes32,address)":"d547741f","setMatured(string)":"04b96f9f","supportsInterface(bytes4)":"01ffc9a7","symbol()":"95d89b41","totalPartitions()":"69598efe","totalSupply()":"18160ddd","totalSupplyByPartition(bytes32)":"a26734dc","transferByPartition(bytes32,address,uint256,bytes)":"f3d490db","updateCouponPayment(string,uint256,uint256)":"35bd2b24"},"id":87}