{"abi":[{"type":"constructor","inputs":[{"name":"_name","type":"string","internalType":"string"},{"name":"_wNok","type":"address","internalType":"address"},{"name":"_controller","type":"address","internalType":"address"},{"name":"_bondAuction","type":"address","internalType":"address"},{"name":"_bondToken","type":"address","internalType":"address"},{"name":"_bondDvp","type":"address","internalType":"address"},{"name":"_govTbd","type":"address","internalType":"address"},{"name":"_durationScalar","type":"uint256","internalType":"uint256"}],"stateMutability":"nonpayable"},{"type":"function","name":"BOND_AUCTION","inputs":[],"outputs":[{"name":"","type":"address","internalType":"contract IBondAuction"}],"stateMutability":"view"},{"type":"function","name":"BOND_DVP","inputs":[],"outputs":[{"name":"","type":"address","internalType":"contract IBondDvP"}],"stateMutability":"view"},{"type":"function","name":"BOND_TOKEN","inputs":[],"outputs":[{"name":"","type":"address","internalType":"contract IBondToken"}],"stateMutability":"view"},{"type":"function","name":"DEFAULT_ADMIN_ROLE","inputs":[],"outputs":[{"name":"","type":"bytes32","internalType":"bytes32"}],"stateMutability":"view"},{"type":"function","name":"DURATION_SCALAR","inputs":[],"outputs":[{"name":"","type":"uint256","internalType":"uint256"}],"stateMutability":"view"},{"type":"function","name":"GOV_TBD","inputs":[],"outputs":[{"name":"","type":"address","internalType":"address"}],"stateMutability":"view"},{"type":"function","name":"WNOK","inputs":[],"outputs":[{"name":"","type":"address","internalType":"address"}],"stateMutability":"view"},{"type":"function","name":"bondActive","inputs":[{"name":"","type":"string","internalType":"string"}],"outputs":[{"name":"","type":"bool","internalType":"bool"}],"stateMutability":"view"},{"type":"function","name":"buybackWithAuction","inputs":[{"name":"_isin","type":"string","internalType":"string"},{"name":"_end","type":"uint64","internalType":"uint64"},{"name":"_pubKey","type":"bytes","internalType":"bytes"},{"name":"_buybackSize","type":"uint256","internalType":"uint256"}],"outputs":[],"stateMutability":"nonpayable"},{"type":"function","name":"cancelAuction","inputs":[{"name":"_isin","type":"string","internalType":"string"}],"outputs":[],"stateMutability":"nonpayable"},{"type":"function","name":"closeAuction","inputs":[{"name":"_isin","type":"string","internalType":"string"}],"outputs":[{"name":"","type":"tuple[]","internalType":"struct IBondAuction.Bid[]","components":[{"name":"bidder","type":"address","internalType":"address"},{"name":"ciphertext","type":"bytes","internalType":"bytes"},{"name":"plaintextHash","type":"bytes32","internalType":"bytes32"}]}],"stateMutability":"nonpayable"},{"type":"function","name":"deployBondWithAuction","inputs":[{"name":"_isin","type":"string","internalType":"string"},{"name":"_end","type":"uint64","internalType":"uint64"},{"name":"_pubKey","type":"bytes","internalType":"bytes"},{"name":"_offering","type":"uint256","internalType":"uint256"},{"name":"_maturityDuration","type":"uint256","internalType":"uint256"}],"outputs":[],"stateMutability":"nonpayable"},{"type":"function","name":"extendBondWithAuction","inputs":[{"name":"_isin","type":"string","internalType":"string"},{"name":"_end","type":"uint64","internalType":"uint64"},{"name":"_pubKey","type":"bytes","internalType":"bytes"},{"name":"_additionalOffering","type":"uint256","internalType":"uint256"}],"outputs":[],"stateMutability":"nonpayable"},{"type":"function","name":"finaliseAuction","inputs":[{"name":"_isin","type":"string","internalType":"string"},{"name":"_alloc","type":"tuple[]","internalType":"struct IBondAuction.Allocation[]","components":[{"name":"isin","type":"string","internalType":"string"},{"name":"bidder","type":"address","internalType":"address"},{"name":"units","type":"uint256","internalType":"uint256"},{"name":"rate","type":"uint256","internalType":"uint256"},{"name":"auctionType","type":"uint8","internalType":"enum IBondAuction.AuctionType"}]},{"name":"_proofs","type":"tuple[]","internalType":"struct IBondAuction.BidVerification[]","components":[{"name":"bidIndex","type":"uint256","internalType":"uint256"},{"name":"bidderNonce","type":"uint256","internalType":"uint256"},{"name":"bidderSig","type":"bytes","internalType":"bytes"}]}],"outputs":[],"stateMutability":"nonpayable"},{"type":"function","name":"getRoleAdmin","inputs":[{"name":"role","type":"bytes32","internalType":"bytes32"}],"outputs":[{"name":"","type":"bytes32","internalType":"bytes32"}],"stateMutability":"view"},{"type":"function","name":"getSealedBids","inputs":[{"name":"_isin","type":"string","internalType":"string"}],"outputs":[{"name":"","type":"tuple[]","internalType":"struct IBondAuction.Bid[]","components":[{"name":"bidder","type":"address","internalType":"address"},{"name":"ciphertext","type":"bytes","internalType":"bytes"},{"name":"plaintextHash","type":"bytes32","internalType":"bytes32"}]}],"stateMutability":"view"},{"type":"function","name":"grantRole","inputs":[{"name":"role","type":"bytes32","internalType":"bytes32"},{"name":"account","type":"address","internalType":"address"}],"outputs":[],"stateMutability":"nonpayable"},{"type":"function","name":"hasRole","inputs":[{"name":"role","type":"bytes32","internalType":"bytes32"},{"name":"account","type":"address","internalType":"address"}],"outputs":[{"name":"","type":"bool","internalType":"bool"}],"stateMutability":"view"},{"type":"function","name":"name","inputs":[],"outputs":[{"name":"","type":"string","internalType":"string"}],"stateMutability":"view"},{"type":"function","name":"payCoupon","inputs":[{"name":"_isin","type":"string","internalType":"string"},{"name":"_holders","type":"address[]","internalType":"address[]"}],"outputs":[],"stateMutability":"nonpayable"},{"type":"function","name":"redeem","inputs":[{"name":"_isin","type":"string","internalType":"string"},{"name":"_holders","type":"address[]","internalType":"address[]"}],"outputs":[],"stateMutability":"nonpayable"},{"type":"function","name":"renounceRole","inputs":[{"name":"role","type":"bytes32","internalType":"bytes32"},{"name":"callerConfirmation","type":"address","internalType":"address"}],"outputs":[],"stateMutability":"nonpayable"},{"type":"function","name":"revokeRole","inputs":[{"name":"role","type":"bytes32","internalType":"bytes32"},{"name":"account","type":"address","internalType":"address"}],"outputs":[],"stateMutability":"nonpayable"},{"type":"function","name":"supportsInterface","inputs":[{"name":"interfaceId","type":"bytes4","internalType":"bytes4"}],"outputs":[{"name":"","type":"bool","internalType":"bool"}],"stateMutability":"view"},{"type":"function","name":"withdrawFailedIssuance","inputs":[{"name":"_isin","type":"string","internalType":"string"}],"outputs":[],"stateMutability":"nonpayable"},{"type":"event","name":"AllCouponsPaid","inputs":[{"name":"isin","type":"string","indexed":true,"internalType":"string"}],"anonymous":false},{"type":"event","name":"BondAllocationFailed","inputs":[{"name":"id","type":"bytes32","indexed":true,"internalType":"bytes32"},{"name":"isin","type":"string","indexed":false,"internalType":"string"},{"name":"bidder","type":"address","indexed":true,"internalType":"address"},{"name":"reason","type":"string","indexed":false,"internalType":"string"}],"anonymous":false},{"type":"event","name":"BondAuctionCancelled","inputs":[{"name":"id","type":"bytes32","indexed":true,"internalType":"bytes32"},{"name":"isin","type":"string","indexed":false,"internalType":"string"},{"name":"offeringReduced","type":"uint256","indexed":false,"internalType":"uint256"}],"anonymous":false},{"type":"event","name":"BondAuctionClosed","inputs":[{"name":"id","type":"bytes32","indexed":true,"internalType":"bytes32"},{"name":"isin","type":"string","indexed":false,"internalType":"string"}],"anonymous":false},{"type":"event","name":"BondAuctionFinalised","inputs":[{"name":"id","type":"bytes32","indexed":true,"internalType":"bytes32"},{"name":"isin","type":"string","indexed":false,"internalType":"string"},{"name":"dvpSuccess","type":"bool","indexed":false,"internalType":"bool"}],"anonymous":false},{"type":"event","name":"BondAuctionInitialised","inputs":[{"name":"id","type":"bytes32","indexed":true,"internalType":"bytes32"},{"name":"isin","type":"string","indexed":false,"internalType":"string"},{"name":"bondAddress","type":"address","indexed":false,"internalType":"address"},{"name":"offering","type":"uint256","indexed":false,"internalType":"uint256"},{"name":"maturityDurationSeconds","type":"uint256","indexed":false,"internalType":"uint256"}],"anonymous":false},{"type":"event","name":"BondBuybackAuctionInitialised","inputs":[{"name":"id","type":"bytes32","indexed":true,"internalType":"bytes32"},{"name":"isin","type":"string","indexed":false,"internalType":"string"},{"name":"bondAddress","type":"address","indexed":false,"internalType":"address"},{"name":"buybackSize","type":"uint256","indexed":false,"internalType":"uint256"}],"anonymous":false},{"type":"event","name":"BondBuybackComplete","inputs":[{"name":"id","type":"bytes32","indexed":true,"internalType":"bytes32"},{"name":"isin","type":"string","indexed":false,"internalType":"string"},{"name":"total","type":"uint256","indexed":false,"internalType":"uint256"}],"anonymous":false},{"type":"event","name":"BondExtensionAuctionInitialised","inputs":[{"name":"id","type":"bytes32","indexed":true,"internalType":"bytes32"},{"name":"isin","type":"string","indexed":false,"internalType":"string"},{"name":"bondAddress","type":"address","indexed":false,"internalType":"address"},{"name":"additionalOffering","type":"uint256","indexed":false,"internalType":"uint256"}],"anonymous":false},{"type":"event","name":"BondIssuanceComplete","inputs":[{"name":"id","type":"bytes32","indexed":true,"internalType":"bytes32"},{"name":"isin","type":"string","indexed":false,"internalType":"string"},{"name":"total","type":"uint256","indexed":false,"internalType":"uint256"}],"anonymous":false},{"type":"event","name":"BondRedeemed","inputs":[{"name":"isin","type":"string","indexed":true,"internalType":"string"},{"name":"holder","type":"address","indexed":true,"internalType":"address"},{"name":"value","type":"uint256","indexed":false,"internalType":"uint256"},{"name":"wnokAmount","type":"uint256","indexed":false,"internalType":"uint256"}],"anonymous":false},{"type":"event","name":"BondRedemptionComplete","inputs":[{"name":"isin","type":"string","indexed":true,"internalType":"string"}],"anonymous":false},{"type":"event","name":"CouponPaid","inputs":[{"name":"isin","type":"string","indexed":true,"internalType":"string"},{"name":"holder","type":"address","indexed":true,"internalType":"address"},{"name":"paymentAmount","type":"uint256","indexed":false,"internalType":"uint256"},{"name":"paymentNumber","type":"uint256","indexed":false,"internalType":"uint256"}],"anonymous":false},{"type":"event","name":"RoleAdminChanged","inputs":[{"name":"role","type":"bytes32","indexed":true,"internalType":"bytes32"},{"name":"previousAdminRole","type":"bytes32","indexed":true,"internalType":"bytes32"},{"name":"newAdminRole","type":"bytes32","indexed":true,"internalType":"bytes32"}],"anonymous":false},{"type":"event","name":"RoleGranted","inputs":[{"name":"role","type":"bytes32","indexed":true,"internalType":"bytes32"},{"name":"account","type":"address","indexed":true,"internalType":"address"},{"name":"sender","type":"address","indexed":true,"internalType":"address"}],"anonymous":false},{"type":"event","name":"RoleRevoked","inputs":[{"name":"role","type":"bytes32","indexed":true,"internalType":"bytes32"},{"name":"account","type":"address","indexed":true,"internalType":"address"},{"name":"sender","type":"address","indexed":true,"internalType":"address"}],"anonymous":false},{"type":"error","name":"AccessControlBadConfirmation","inputs":[]},{"type":"error","name":"AccessControlUnauthorizedAccount","inputs":[{"name":"account","type":"address","internalType":"address"},{"name":"neededRole","type":"bytes32","internalType":"bytes32"}]},{"type":"error","name":"AdditionalOfferingZero","inputs":[]},{"type":"error","name":"AllCouponsPaid","inputs":[{"name":"isin","type":"string","internalType":"string"}]},{"type":"error","name":"BondDoesNotExist","inputs":[{"name":"isin","type":"string","internalType":"string"}]},{"type":"error","name":"BondUnitNominalZero","inputs":[]},{"type":"error","name":"BuybackExceedsSupply","inputs":[{"name":"isin","type":"string","internalType":"string"},{"name":"buybackSize","type":"uint256","internalType":"uint256"},{"name":"currentSupply","type":"uint256","internalType":"uint256"}]},{"type":"error","name":"BuybackOfferingZero","inputs":[{"name":"isin","type":"string","internalType":"string"}]},{"type":"error","name":"CouponNotReady","inputs":[{"name":"isin","type":"string","internalType":"string"},{"name":"nextPaymentTime","type":"uint256","internalType":"uint256"},{"name":"currentTime","type":"uint256","internalType":"uint256"}]},{"type":"error","name":"CouponPaymentBalanceMismatch","inputs":[{"name":"isin","type":"string","internalType":"string"},{"name":"processedBalance","type":"uint256","internalType":"uint256"},{"name":"totalSupply","type":"uint256","internalType":"uint256"}]},{"type":"error","name":"DurationScalarZero","inputs":[]},{"type":"error","name":"IncorrectBondState","inputs":[{"name":"isin","type":"string","internalType":"string"},{"name":"expected","type":"bool","internalType":"bool"}]},{"type":"error","name":"InvalidGovTbd","inputs":[]},{"type":"error","name":"MaturityDurationZero","inputs":[]},{"type":"error","name":"NoAllocations","inputs":[]},{"type":"error","name":"NoFailedIssuance","inputs":[]},{"type":"error","name":"OfferingZero","inputs":[]},{"type":"error","name":"RedemptionIncomplete","inputs":[{"name":"_isin","type":"string","internalType":"string"},{"name":"remaining","type":"uint256","internalType":"uint256"}]},{"type":"error","name":"SettlementFailure","inputs":[{"name":"reason","type":"uint8","internalType":"uint8"},{"name":"lowLevelData","type":"bytes","internalType":"bytes"}]}],"bytecode":{"object":"0x61018080604052346103c757614011803803809161001d8285610569565b8339810190610100818303126103c75780516001600160401b0381116103c757810182601f820112156103c7578051906001600160401b03821161053e5760405193610073601f8401601f191660200186610569565b828552602083830101116103c75760005b8281106105545750506020600091840101526100a26020820161058c565b916100af6040830161058c565b926100bc6060840161058c565b6100c86080850161058c565b916100d560a0860161058c565b936100fa60e06100e760c0890161058c565b970151976100f4336105a0565b5061061c565b508051906001600160401b03821161053e57600154600181811c91168015610534575b602082101461051e57601f81116104b9575b50602090601f8311600114610447579180600498969492602098969460009261043c575b50508160011b916000199060031b1c1916176001555b60e0526001600160a01b0390811660c0529081166101005290811661012052610140829052604051633125ac2360e21b815293849290918391165afa9081156103d457600091610402575b506101608190526001600160a01b0316156103f15780156103e05760805261010051604051631d5c0da760e31b815290602090829060049082906001600160a01b03165afa9081156103d45760009161039d575b508060a0521561038c576040516138fc90816106b582396080518181816114b90152818161171501526133d8015260a05181818161083f0152818161183e01528181613166015261351e015260c0518181816105b7015281816110ab015281816111fd015281816112e00152818161157401528181611ea201528181611fa10152612a11015260e05181818161167801526130e20152610100518181816104cb015281816107eb01528181610c5001528181610fad015281816114e001528181611772015281816117d6015281816118c90152818161190f01528181611963015281816119a2015281816119f501528181611b0601528181611b600152818161202e015281816124010152818161295d0152818161301d015261346001526101205181818161088301528181611c3901528181611e51015281816130b701526134ae01526101405181818161086101528181611bbf0152818161217401526134fc0152610160518181816108ae015281816118730152818161309401526134da0152f35b630b5714d360e21b60005260046000fd5b90506020813d6020116103cc575b816103b860209383610569565b810103126103c7575138610208565b600080fd5b3d91506103ab565b6040513d6000823e3d90fd5b6309f400f160e31b60005260046000fd5b632d134c7960e01b60005260046000fd5b90506020813d602011610434575b8161041d60209383610569565b810103126103c75761042e9061058c565b386101b4565b3d9150610410565b015190503880610153565b90601f198316916001600052816000209260005b8181106104a1575092600192859260209a989660049c9a989610610488575b505050811b01600155610169565b015160001960f88460031b161c1916905538808061047a565b9293602060018192878601518155019501930161045b565b60016000527fb10e2d527612073b26eecdfd717e6a320cf44b4afac2b0732d9fcbe2b7fa0cf6601f840160051c81019160208510610514575b601f0160051c01905b818110610508575061012f565b600081556001016104fb565b90915081906104f2565b634e487b7160e01b600052602260045260246000fd5b90607f169061011d565b634e487b7160e01b600052604160045260246000fd5b80602080928401015182828801015201610084565b601f909101601f19168101906001600160401b0382119082101761053e57604052565b51906001600160a01b03821682036103c757565b6001600160a01b0381166000908152600080516020613ff1833981519152602052604090205460ff16610616576001600160a01b03166000818152600080516020613ff183398151915260205260408120805460ff19166001179055339190600080516020613fb18339815191528180a4600190565b50600090565b6001600160a01b0381166000908152600080516020613fd1833981519152602052604090205460ff16610616576001600160a01b03166000818152600080516020613fd183398151915260205260408120805460ff191660011790553391907f7cacebec1f49b9ad7068665591fac458508c6ad9da1f804163a324b7d985174e90600080516020613fb18339815191529080a460019056fe6080604052600436101561001257600080fd5b60003560e01c806301ffc9a7146101a757806306fdde03146101a2578063178ee2aa1461019d5780631de69bc514610198578063248a9ca31461019357806326d0ff901461018e5780632f2ff15d1461018957806336568abe146101845780633ad78eff1461017f57806357cbc4431461017a5780636170f48014610175578063693dfca8146101705780637c68f48b1461016b5780638c2fbb641461016657806391d14854146101615780639e481a961461015c578063a0124cc814610157578063a217fddf14610152578063aaec175e1461014d578063b576981e14610148578063b60e7a3b14610143578063d547741f1461013e578063d9ebe49614610139578063db76db9c146101345763f21b52e51461012f57600080fd5b6123eb565b612291565b61215e565b61211b565b611f5a565b611e80565b611e3b565b611e1f565b611738565b6116fd565b6116a7565b611662565b611420565b6112b0565b6111e7565b610f6b565b610f06565b610e3d565b610df3565b610c22565b610bbf565b6107c2565b61047d565b6102db565b346101fd5760203660031901126101fd5760043563ffffffff60e01b81168091036101fd57602090637965db0b60e01b81149081156101ec575b506040519015158152f35b6301ffc9a760e01b149050386101e1565b600080fd5b60009103126101fd57565b634e487b7160e01b600052604160045260246000fd5b606081019081106001600160401b0382111761023e57604052565b61020d565b60a081019081106001600160401b0382111761023e57604052565b90601f801991011681019081106001600160401b0382111761023e57604052565b60005b8381106102925750506000910152565b8181015183820152602001610282565b906020916102bb8151809281855285808601910161027f565b601f01601f1916010190565b9060206102d89281815201906102a2565b90565b346101fd5760003660031901126101fd5760405160006001548060011c90600181169081156103c7575b6020831082146103b357828552602085019190811561039a5750600114610347575b610343846103378186038261025e565b604051918291826102c7565b0390f35b600160009081529250907fb10e2d527612073b26eecdfd717e6a320cf44b4afac2b0732d9fcbe2b7fa0cf65b8184106103865750500161033782610327565b805484840152602090930192600101610373565b60ff191682525090151560051b01905061033782610327565b634e487b7160e01b84526022600452602484fd5b91607f1691610305565b9181601f840112156101fd578235916001600160401b0383116101fd57602083818601950101116101fd57565b602435906001600160401b03821682036101fd57565b9060806003198301126101fd576004356001600160401b0381116101fd578261043f916004016103d1565b929092916024356001600160401b03811681036101fd5791604435906001600160401b0382116101fd57610475916004016103d1565b909160643590565b346101fd5761048b36610414565b9093929491610498612d68565b6104a28484612e15565b6104bc6104af8585612430565b805460ff19166001179055565b60405163898cb91560e01b81527f00000000000000000000000000000000000000000000000000000000000000006001600160a01b0316969060208180610507898960048401612479565b03818b5afa9081156106805760009161072f575b50604051630ac9ecb360e11b8152600481018290526020816024818c5afa90811561068057600091610700575b50156106e45783156106c857604051632899cd3760e21b815260048101919091526020816024818b5afa908115610680576000916106a9575b508084116106855750906020916105b18489604051998a95869563461e859b60e11b8752338c8c60048a016124f7565b038160007f00000000000000000000000000000000000000000000000000000000000000006001600160a01b03165af193841561068057600094610629575b50610624907f32800931f35d2e081366ed054d4cb267ef50483a0000ea314d81667701bc9ccb9495604051948594856125e4565b0390a2005b7f32800931f35d2e081366ed054d4cb267ef50483a0000ea314d81667701bc9ccb9450906106716106249260203d602011610679575b610669818361025e565b810190612449565b9450906105f0565b503d61065f565b61248a565b9150506106a591604051948594630124b46560e31b8652600486016124ae565b0390fd5b6106c2915060203d60201161067957610669818361025e565b38610581565b60405163011b514560e51b8152806106a5888860048401612479565b60405163052c20a160e51b8152806106a5888860048401612479565b610722915060203d602011610728575b61071a818361025e565b810190612496565b38610548565b503d610710565b610748915060203d60201161067957610669818361025e565b3861051b565b9060406003198301126101fd576004356001600160401b0381116101fd5782610779916004016103d1565b929092916024356001600160401b0381116101fd57826023820112156101fd578060040135926001600160401b0384116101fd5760248460051b830101116101fd576024019190565b346101fd576107d03661074e565b6107db939293612d68565b60405163898cb91560e01b8152917f00000000000000000000000000000000000000000000000000000000000000006001600160a01b0316919060208480610827898960048401612479565b0381865afa93841561068057600094610b9e575b50907f0000000000000000000000000000000000000000000000000000000000000000907f0000000000000000000000000000000000000000000000000000000000000000907f00000000000000000000000000000000000000000000000000000000000000006001600160a01b0316907f00000000000000000000000000000000000000000000000000000000000000009060005b81811061097b57604051632899cd3760e21b8152600481018a90528b908b906020816024818e5afa9081156106805760009161095c575b508061093f57610918838361273d565b7ff54cdec5cbb4512ca1b3310bc1fb4468b36ac245b60a292c1c723b4b2ac4db5f600080a2005b6106a590604051938493632fd16f9360e11b855260048501612752565b610975915060203d60201161067957610669818361025e565b83610908565b8061099261098d6109c493858b612628565b61263d565b6040516330e8280360e01b8152600481018c90526001600160a01b038216602482015292602090849081906044820190565b03818d5afa908115610680578b93600092610b7e575b508115610b7357610a8b60208c6109f18c8661265d565b96610a0c6109fd610e87565b6001600160a01b039093168352565b818301526001600160a01b038416604082015260006060820152608081018590526001600160a01b038b1660a08201526001600160a01b03891660c08201526001600160a01b03841660e0820152610100810187905233610120820152600261014082015260405180938192635de7483160e11b835260048301612682565b038160008c5af190811561068057600091610b55575b5015610b06577f16b3e67fcec6537c643f972fd25c5189ff36740d8e41f9463785c84cb60680d96001948f8f90610ad79161273d565b92610afc604051928392898060a01b0316968360209093929193604081019481520152565b0390a35b016108d1565b6040805163c974ce9560e01b8152600260048201526024810191909152601c60448201527f72656465656d20736574746c652072657475726e65642066616c7365000000006064820152608490fd5b610b6d915060203d81116107285761071a818361025e565b38610aa1565b505060019150610b00565b610b9791925060203d811161067957610669818361025e565b90386109da565b610bb891945060203d60201161067957610669818361025e565b923861083b565b346101fd5760203660031901126101fd576020610bec600435600052600060205260016040600020015490565b604051908152f35b60206003198201126101fd57600435906001600160401b0382116101fd57610c1e916004016103d1565b9091565b346101fd57610c876020610c3536610bf4565b610c40929192612d68565b60405163898cb91560e01b8152937f00000000000000000000000000000000000000000000000000000000000000006001600160a01b031693859283929160048401612479565b0381845afa91821561068057600092610dc1575b506040516330e8280360e01b81526004810183905230602482015290602082604481845afa91821561068057600092610da0575b508115610d8f5760405163f3d490db60e01b815260048101849052336024820152604481019290925260806064830152600060848301819052602091839160a4918391905af190811561068057600091610d70575b5003610d2c57005b6040805163c974ce9560e01b815260006004820152602481019190915260126044820152710e0c2e4e8d2e8d2dedc40dad2e6dac2e8c6d60731b6064820152608490fd5b610d89915060203d60201161067957610669818361025e565b38610d24565b634b3309ab60e01b60005260046000fd5b610dba91925060203d60201161067957610669818361025e565b9038610ccf565b610ddb91925060203d60201161067957610669818361025e565b9038610c9b565b6001600160a01b038116036101fd57565b346101fd5760403660031901126101fd57610e3b602435600435610e1682610de2565b610e36610e3182600052600060205260016040600020015490565b612dda565b612eca565b005b346101fd5760403660031901126101fd57600435602435610e5d81610de2565b336001600160a01b03821603610e7657610e3b91612f5a565b63334bd91960e11b60005260046000fd5b60405190610e976101608361025e565b565b6001600160401b03811161023e57601f01601f191660200190565b929192610ec082610e99565b91610ece604051938461025e565b8294818452818301116101fd578281602093846000960137010152565b9080601f830112156101fd578160206102d893359101610eb4565b346101fd5760203660031901126101fd576004356001600160401b0381116101fd57610f506020610f3d60ff933690600401610eeb565b816040519382858094519384920161027f565b60029082019081520301902054604051911615158152602090f35b346101fd57610f7936610414565b909392610f87959295612d68565b610f918484612e15565b610f9e6104af8585612430565b60405163898cb91560e01b81527f00000000000000000000000000000000000000000000000000000000000000006001600160a01b0316969060208180610fe9898960048401612479565b03818b5afa90811561068057611024916020916000916111ca575b5060405180938192630ac9ecb360e11b8352600483019190602083019252565b03818b5afa908115610680576000916111ab575b501561118b57821561117a57863b156101fd576040516354549a5360e11b8152916000838061106c878a8a60048501612752565b0381838c5af19283156106805760209361115f575b506110a58489604051998a95869563461e859b60e11b8752338c8c60048a0161255c565b038160007f00000000000000000000000000000000000000000000000000000000000000006001600160a01b03165af193841561068057600094611118575b50610624907ff965d7c65659b742666946f3de63ab32117d41b06f8e2e83f2ba77e86f881d149495604051948594856125e4565b7ff965d7c65659b742666946f3de63ab32117d41b06f8e2e83f2ba77e86f881d149450906111576106249260203d60201161067957610669818361025e565b9450906110e4565b8061116e60006111749361025e565b80610202565b38611081565b6301573afb60e51b60005260046000fd5b505060405163052c20a160e51b81529283926106a5925060048401612479565b6111c4915060203d6020116107285761071a818361025e565b38611038565b6111e19150823d841161067957610669818361025e565b38611004565b346101fd5760003660031901126101fd576040517f00000000000000000000000000000000000000000000000000000000000000006001600160a01b03168152602090f35b602081016020825282518091526040820191602060408360051b8301019401926000915b83831061125f57505050505090565b9091929394602080600192603f19858203018652885190848060a01b03825116815260408061129b8585015160608786015260608501906102a2565b93015191015297019301930191939290611250565b346101fd576112be36610bf4565b906112c7612d68565b6112d18282612e6d565b60405163f675f6d160e01b81527f00000000000000000000000000000000000000000000000000000000000000006001600160a01b03166020828061131a878760048401612479565b0381845afa9384156106805760009485946113979486926113dd575b5081927f06237bde8f449d9ab699af41271c277938cbc5c451ede7230fd63350887553289161136a60405192839283612479565b0390a260405163c1dfc01d60e01b8152600481019190915233602482015293849283919082906044820190565b03925af1801561068057610343916000916113ba575b506040519182918261122c565b6113d791503d806000833e6113cf818361025e565b8101906127b1565b386113ad565b7f06237bde8f449d9ab699af41271c277938cbc5c451ede7230fd63350887553289192506114199060203d60201161067957610669818361025e565b9190611336565b346101fd5760a03660031901126101fd576004356001600160401b0381116101fd576114509036906004016103d1565b906114596103fe565b916044356001600160401b0381116101fd576114799036906004016103d1565b92909361148560643590565b608435611490612d68565b61149a8585612e15565b6114a76104af8686612430565b8115611651578015611640576114de907f00000000000000000000000000000000000000000000000000000000000000009061265d565b7f00000000000000000000000000000000000000000000000000000000000000006001600160a01b031696909290873b156101fd57604051635cc7ff5f60e11b8152916000838061153588888c8c600486016124ae565b0381838d5af19283156106805760209361162b575b5061156e848a6040519a8b95869563461e859b60e11b8752338d8d60048a016125bb565b038160007f00000000000000000000000000000000000000000000000000000000000000006001600160a01b03165af1948515610680576000956115e2575b5090610624917f2f7e497c566456010ad6064d45ec24af1a58ce7b6463a08606e13e2f5760adb0959660405195869586612899565b7f2f7e497c566456010ad6064d45ec24af1a58ce7b6463a08606e13e2f5760adb0955090611622610624939260203d60201161067957610669818361025e565b955090916115ad565b8061116e600061163a9361025e565b3861154a565b630a6dc29760e11b60005260046000fd5b635473cfdf60e01b60005260046000fd5b346101fd5760003660031901126101fd576040517f00000000000000000000000000000000000000000000000000000000000000006001600160a01b03168152602090f35b346101fd5760403660031901126101fd57602060ff6116f16024356004356116ce82610de2565b6000526000845260406000209060018060a01b0316600052602052604060002090565b54166040519015158152f35b346101fd5760003660031901126101fd5760206040517f00000000000000000000000000000000000000000000000000000000000000008152f35b346101fd576117463661074e565b61174e612d68565b60405163898cb91560e01b8152916020838061176e878960048401612479565b03817f00000000000000000000000000000000000000000000000000000000000000006001600160a01b03165afa92831561068057600093611dfe575b506040516303c53c8960e01b81529260a084806117cc888a60048401612479565b0381600180851b037f0000000000000000000000000000000000000000000000000000000000000000165afa928315610680576000808081978297611dbe575b5081611817916128f3565b9687871015611da2579061182a91612921565b804210611d81575061186261186a919492947f000000000000000000000000000000000000000000000000000000000000000061265d565b612710900490565b906000936000907f0000000000000000000000000000000000000000000000000000000000000000915b818110611ac7575050604051632899cd3760e21b81526004810194909452509192915060209050826024816001600160a01b037f0000000000000000000000000000000000000000000000000000000000000000165afa91821561068057600092611aa6575b50818103611a8657505061190d90612913565b7f00000000000000000000000000000000000000000000000000000000000000006001600160a01b03163b156101fd57604051630d6f4ac960e21b81526000818061195e8542898b600486016124ae565b0381837f00000000000000000000000000000000000000000000000000000000000000006001600160a01b03165af1801561068057611a71575b50146119a057005b7f00000000000000000000000000000000000000000000000000000000000000006001600160a01b03163b156101fd576040516304b96f9f60e01b815291600083806119f0858560048401612479565b0381837f00000000000000000000000000000000000000000000000000000000000000006001600160a01b03165af192831561068057611a3593611a5c575b5061273d565b7f6d7a7a8180b36f4ce27adcb4632323d7929961daf39863a75e7724dabd66ef3a600080a2005b8061116e6000611a6b9361025e565b38611a2f565b8061116e6000611a809361025e565b38611998565b6040516301f516e760e71b81529182916106a591908789600486016124ae565b611ac091925060203d60201161067957610669818361025e565b90386118fa565b611ad561098d828487612628565b6040516330e8280360e01b8152600481018890526001600160a01b03821660248201529190602083806044810103817f00000000000000000000000000000000000000000000000000000000000000006001600160a01b03165afa92831561068057600093611d61575b508215611d5757611b50878461265d565b90611c336020611b5e610e87565b7f00000000000000000000000000000000000000000000000000000000000000006001600160a01b031681528082018c90526001600160a01b03841660408201526001600160a01b0384166060820152600060808201526001600160a01b037f00000000000000000000000000000000000000000000000000000000000000001660a08201526001600160a01b03891660c08201526001600160a01b03841660e0820152846101008201526000610120820152600061014082015260405180938192635de7483160e11b835260048301612682565b038160007f00000000000000000000000000000000000000000000000000000000000000006001600160a01b03165af190811561068057600091611d39575b5015611cea577fd0c469318624b59111a27a4ddffaa6d5cc95b309033c394c0cdf04b0c139c1618e611cbb8f611cb58f9e600199611caf91612921565b9e612913565b9261273d565b92611ce0604051928392898060a01b0316968360209093929193604081019481520152565b0390a35b01611894565b6040805163c974ce9560e01b8152600260048201526024810191909152601c60448201527f636f75706f6e20736574746c652072657475726e65642066616c7365000000006064820152608490fd5b611d51915060203d81116107285761071a818361025e565b38611c72565b5060019150611ce4565b611d7a91935060203d811161067957610669818361025e565b9138611b3f565b6040516360e87b0d60e11b81529081906106a59042908b8d600486016124ae565b604051636d7a7a8160e01b8152806106a58b8d60048401612479565b92505050611dea919550611817945060a03d60a011611df7575b611de2818361025e565b8101906128cc565b909790965092908161180c565b503d611dd8565b611e1891935060203d60201161067957610669818361025e565b91386117ab565b346101fd5760003660031901126101fd57602060405160008152f35b346101fd5760003660031901126101fd576040517f00000000000000000000000000000000000000000000000000000000000000006001600160a01b03168152602090f35b346101fd576020611edd611e9336610bf4565b60405163f675f6d160e01b81527f00000000000000000000000000000000000000000000000000000000000000006001600160a01b03169490939092849283929160048401612479565b0381855afa801561068057611f17926000928392611f39575b506040518080958194633bbb2dd960e11b8352600483019190602083019252565b03915afa801561068057610343916000916113ba57506040519182918261122c565b611f5391925060203d60201161067957610669818361025e565b9038611ef6565b346101fd57611f6836610bf4565b611f70612d68565b611f7a8183612e6d565b611f91611f878284612430565b805460ff19169055565b60405163f675f6d160e01b8152917f00000000000000000000000000000000000000000000000000000000000000006001600160a01b0316919060208480611fdd858560048401612479565b0381865afa938415610680576000946120fa575b506040516320b4351160e11b81526004810185905233602482015292602090849060449082906000905af1928315610680576000936120d9575b507f00000000000000000000000000000000000000000000000000000000000000006001600160a01b031692833b156101fd576000604051809563606f1ecb60e01b8252818381612081878a8a60048501612752565b03925af1908115610680577fc8a2dfba9e59197ffd27def7a438bf6e949b4d849f67692fd008819757d4fa0c94610624926120c4575b5060405193849384612752565b8061116e60006120d39361025e565b386120b7565b6120f391935060203d60201161067957610669818361025e565b913861202b565b61211491945060203d60201161067957610669818361025e565b9238611ff1565b346101fd5760403660031901126101fd57610e3b60243560043561213e82610de2565b612159610e3182600052600060205260016040600020015490565b612f5a565b346101fd5760003660031901126101fd576040517f00000000000000000000000000000000000000000000000000000000000000006001600160a01b03168152602090f35b6001600160401b03811161023e5760051b60200190565b81601f820112156101fd578035906121d1826121a3565b926121df604051948561025e565b82845260208085019360051b830101918183116101fd5760208101935b83851061220b57505050505090565b84356001600160401b0381116101fd578201906060828503601f1901126101fd576040519161223983610223565b602081013583526040810135602084015260608101356001600160401b0381116101fd5760209101019084601f830112156101fd576020926122818684868096359101610eb4565b60408201528152019401936121fc565b346101fd5760603660031901126101fd576004356001600160401b0381116101fd576122c19036906004016103d1565b906024356001600160401b0381116101fd57366023820112156101fd5780600401356122ec816121a3565b916122fa604051938461025e565b8183526024602084019260051b820101903682116101fd5760248101925b82841061234c5750505050604435926001600160401b0384116101fd57612346610e3b9436906004016121ba565b9261292e565b83356001600160401b0381116101fd5782019060a060231983360301126101fd576040519161237a83610243565b6024810135906001600160401b0382116101fd576123a060a49260243691840101610eeb565b845260448101356123b081610de2565b6020850152606481013560408501526084810135606085015201359060038210156101fd578260209392608085940152815201930192612318565b346101fd5760003660031901126101fd576040517f00000000000000000000000000000000000000000000000000000000000000006001600160a01b03168152602090f35b6020908260405193849283378101600281520301902090565b908160209103126101fd575190565b908060209392818452848401376000828201840152601f01601f1916010190565b9160206102d8938181520191612458565b6040513d6000823e3d90fd5b908160209103126101fd575180151581036101fd5790565b906124c89060409396959496606084526060840191612458565b9460208201520152565b634e487b7160e01b600052602160045260246000fd5b600311156124f257565b6124d2565b946001600160401b036002989a999561252060c09994612543979660e08b5260e08b0191612458565b6001600160a01b0390951660208901521660408701528583036060870152612458565b6001600160a01b03909616608083015260a08201520152565b946001600160401b036001989a999561258560c099946125a5979660e08b5260e08b0191612458565b948a8060a01b031660208901521660408701528583036060870152612458565b95848060a01b0316608083015260a08201520152565b946001600160401b036000989a999561252060c09994612543979660e08b5260e08b0191612458565b906125fe9060409396959496606084526060840191612458565b6001600160a01b0390951660208201520152565b634e487b7160e01b600052603260045260246000fd5b91908110156126385760051b0190565b612612565b356102d881610de2565b634e487b7160e01b600052601160045260246000fd5b8181029291811591840414171561267057565b612647565b9060048210156124f25752565b81516001600160a01b0316815261016081019291610e979190610140908190602081810151908501526040808201516001600160a01b0316908501526060818101516001600160a01b0316908501526080818101519085015260a0808201516001600160a01b03169085015260c0818101516001600160a01b03169085015260e0818101516001600160a01b0316908501526101008181015190850152610120808201516001600160a01b0316908501520151910190612675565b81604051928392833781016000815203902090565b93929160209161276a91604087526040870191612458565b930152565b81601f820112156101fd57805161278581610e99565b92612793604051948561025e565b818452602082840101116101fd576102d8916020808501910161027f565b6020818303126101fd578051906001600160401b0382116101fd570181601f820112156101fd578051906127e4826121a3565b926127f2604051948561025e565b82845260208085019360051b830101918183116101fd5760208101935b83851061281e57505050505090565b84516001600160401b0381116101fd5782016060818503601f1901126101fd576040519161284b83610223565b602082015161285981610de2565b83526040820151926001600160401b0384116101fd5760608361288388602080988198010161276f565b858401520151604082015281520194019361280f565b91606093969594916128b391608085526080850191612458565b6001600160a01b03909616602083015260408201520152565b908160a09103126101fd578051916020820151916040810151916080606083015192015190565b81156128fd570490565b634e487b7160e01b600052601260045260246000fd5b906001820180921161267057565b9190820180921161267057565b612936612d68565b6129408282612e6d565b61294d611f878383612430565b60405163898cb91560e01b8152927f00000000000000000000000000000000000000000000000000000000000000006001600160a01b031660208580612997878760048401612479565b0381845afa94851561068057600095612bb8575b50604051630ac9ecb360e11b81526004810186905290602090829060249082905afa90811561068057600091612b99575b5015612b7c57805115612b6b5760806129f482612bd9565b51015190612a01826124e8565b60405163f675f6d160e01b8152957f00000000000000000000000000000000000000000000000000000000000000006001600160a01b031660208880612a4b898960048401612479565b0381845afa97881561068057600098612b41575b50612a89916040918460008b855196879586948593638301695560e01b8552339060048601612c84565b03925af1918215610680577f06b1153d79d7a2ff3def9556b579c8cfbd80ab1a27e3e7c280b38cde7822955e96612af194600093600095612b0a575b50612acf816124e8565b60028103612af65750612ae5935086868a613442565b60405193849384612d47565b0390a2565b612b059493929188888c613011565b612ae5565b909450612b3091935060403d604011612b3a575b612b28818361025e565b810190612bfa565b9290929338612ac5565b503d612b1e565b604091985091612b62612a899360203d60201161067957610669818361025e565b98915091612a5f565b63378610c560e01b60005260046000fd5b506106a560405192839263052c20a160e51b845260048401612479565b612bb2915060203d6020116107285761071a818361025e565b386129dc565b612bd291955060203d60201161067957610669818361025e565b93386129ab565b8051156126385760200190565b80518210156126385760209160051b010190565b91908260409103126101fd576020825192015190565b9080602083519182815201916020808360051b8301019401926000915b838310612c3c57505050505090565b9091929394602080612c75600193601f19868203018752606060408b5180518452858101518685015201519181604082015201906102a2565b97019301930191939290612c2d565b909493916080820195825260018060a01b0316602082015260806040820152825180955260a0810194602060a08260051b84010194019060005b818110612cdb575050506102d89394506060818403910152612c10565b909194602080600192609f19878203018b52885190608080612d06845160a0855260a08501906102a2565b93878060a01b038682015116868501526040810151604085015260608101516060850152015191612d36836124e8565b015297019801910196919096612cbe565b91602091612d6091959495604085526040850191612458565b931515910152565b3360009081527f348ee636edb23c1a493682d4c05ad204de93498e3df4f00def300db22a133a38602052604090205460ff1615612da157565b63e2517d3f60e01b600052336004527f7cacebec1f49b9ad7068665591fac458508c6ad9da1f804163a324b7d985174e60245260446000fd5b60008181526020818152604080832033845290915290205460ff1615612dfd5750565b63e2517d3f60e01b6000523360045260245260446000fd5b9060ff6040518284823760208184810160028152030190205416612e37575050565b612e5f9250604051928392637ca693b960e01b84526004840192604084526040840191612458565b906020600015159101520390fd5b90600160ff6040518385823760208185810160028152030190205416151503612e94575050565b612ebc9250604051928392637ca693b960e01b84526004840192604084526040840191612458565b906020600115159101520390fd5b6000818152602081815260408083206001600160a01b038616845290915290205460ff16612f53576000818152602081815260408083206001600160a01b03861684529091529020805460ff1916600117905533916001600160a01b0316907f2f8788117e7eff1d82e926ec794901d17c78024a50270940304540a733656f0d600080a4600190565b5050600090565b6000818152602081815260408083206001600160a01b038616845290915290205460ff1615612f53576000818152602081815260408083206001600160a01b03861684529091529020805460ff1916905533916001600160a01b0316907ff6391f5c32d9c69d2a47ea670b442974b53935d1edc7fd64eb21e047a839171b600080a4600190565b3d1561300c573d90612ff282610e99565b91613000604051938461025e565b82523d6000602084013e565b606090565b959793969095919391927f00000000000000000000000000000000000000000000000000000000000000006001600160a01b031691823b156101fd57604051633acc2adf60e01b81526000818061306e8e308c8f600486016125e4565b038183885af180156106805761342d575b50613089896124e8565b881590816133b5575b7f00000000000000000000000000000000000000000000000000000000000000009a997f00000000000000000000000000000000000000000000000000000000000000006001600160a01b0316957f0000000000000000000000000000000000000000000000000000000000000000939190600060015b8c5182101561336d578f918e8d8f9360008f968f8f908f918f8f8f958f613268966132118f958f96876132319760209d8f6132219861314891506124e8565b8f14613348575061318b60406131616131fc9385612be6565b5101517f00000000000000000000000000000000000000000000000000000000000000009061265d565b985b6131c78e6131a26131b1826131a28689612be6565b5101516001600160a01b031690565b9360406131be8289612be6565b51015196612be6565b956131e26131d3610e87565b6001600160a01b03909d168d52565b8b8f01523060408c01526001600160a01b031660608b0152565b60808901526001600160a01b031660a0880152565b6001600160a01b031660c0860152565b6001600160a01b031660e0840152565b6101008201528461012082015261324c610140820160019052565b604051948580948193635de7483160e11b835260048301612682565b03925af160009181613328575b506132b7575050906132b091600194956132aa613290612fe1565b936132a260206131a28960009c612be6565b933691610eb4565b90613826565b0190613109565b94929094156132ce575b50505060019192506132b0565b6001945061331b92956132aa6132eb60206131a28860009b612be6565b92604051946133148661330660208201906002602083019252565b03601f19810188528761025e565b3691610eb4565b8b9291508d8f8e906132c1565b61334191925060203d81116107285761071a818361025e565b9038613275565b6118626133679161336160406131616131fc9688612be6565b9061265d565b9861318d565b9d9750509c5050505050507f24a54a1a3bd3cb324fa15b75452e63d67a26aa4f1b26a7c20867017dde6b24fa94506133af915094919460405193849384612752565b0390a290565b833b156101fd576134016000828b604051938492839263075e5bd160e01b84528d7f000000000000000000000000000000000000000000000000000000000000000091600486016124ae565b038183895af1801561068057613418575b50613092565b8061116e60006134279361025e565b38613412565b8061116e600061343c9361025e565b3861307f565b604051632899cd3760e21b8152600481018590526001600160a01b037f0000000000000000000000000000000000000000000000000000000000000000169796929594919291906020816024818c5afa9081156106805760009161373e575b5080831161371e575090957f00000000000000000000000000000000000000000000000000000000000000006001600160a01b031691907f0000000000000000000000000000000000000000000000000000000000000000907f0000000000000000000000000000000000000000000000000000000000000000907f000000000000000000000000000000000000000000000000000000000000000090600160005b8a518110156136de5790818a8f60008f918f968d602092828f8f908f8f926132118f92836135d96135a36118628a61336161360f9f9b604061359b60606135f59f613591906132219f612be6565b5101519489612be6565b51015161265d565b986135b98e6131a26131b1826131a28689612be6565b976135c56131d3610e87565b8b8f01526001600160a01b031660408b0152565b606089018d905260808901526001600160a01b031660a0880152565b61010082015233610120820152600361014082015261324c565b03925af1600091816136be575b5061365b5750600193506136559161364f613635612fe1565b9261364760206131a28860009b612be6565b923691610eb4565b8d613826565b01613543565b1561366d575b50506001919250613655565b60019350906136b39161364f61368a60206131a28760009a612be6565b9160405193613314856136a560208201906002602083019252565b03601f19810187528661025e565b8b9291508a8d613661565b6136d791925060203d81116107285761071a818361025e565b903861361c565b509a94509a505050507ff39fbf8455b56f269c91bfc4678bfbaea5c708408727b5d74f3cc188c6c72a7594506133af915094919460405193849384612752565b604051630124b46560e31b81529081906106a59085888b600486016124ae565b613757915060203d60201161067957610669818361025e565b386134a1565b6040519061376c60408361025e565b60078252662ab735b737bbb760c91b6020830152565b9190916040818403126101fd57805160ff811681036101fd579260208201516001600160401b0381116101fd576102d8920161276f565b604051906137c860408361025e565b6004825263086c2e6d60e31b6020830152565b604051906137ea60408361025e565b6008825267536563757269747960c01b6020830152565b90916138186102d8936040845260408401906102a2565b9160208184039101526102a2565b91927e7199fa7008c8827123097905e6090e179337c7cd9af800533490839cf1676b919361385261375d565b918051600481101561387e575b505061387960405192839260018060a01b03169683613801565b0390a3565b60208201516001600160e01b03191663c974ce9560e01b14806138f2575b1561385f576003198101600483015260ff916138c091810160200190602401613782565b5016806138db575090506138d26137db565b905b388061385f565b6001036138d45790506138ec6137b9565b906138d4565b506004811161389c562f8788117e7eff1d82e926ec794901d17c78024a50270940304540a733656f0d348ee636edb23c1a493682d4c05ad204de93498e3df4f00def300db22a133a38ad3228b676f7d3cd4284a5443f17f1962b36e491b30a40b2405849e597ba5fb5","linkReferences":{}},"methodIdentifiers":{"BOND_AUCTION()":"6170f480","BOND_DVP()":"aaec175e","BOND_TOKEN()":"f21b52e5","DEFAULT_ADMIN_ROLE()":"a217fddf","DURATION_SCALAR()":"9e481a96","GOV_TBD()":"d9ebe496","WNOK()":"8c2fbb64","bondActive(string)":"3ad78eff","buybackWithAuction(string,uint64,bytes,uint256)":"178ee2aa","cancelAuction(string)":"b60e7a3b","closeAuction(string)":"693dfca8","deployBondWithAuction(string,uint64,bytes,uint256,uint256)":"7c68f48b","extendBondWithAuction(string,uint64,bytes,uint256)":"57cbc443","finaliseAuction(string,(string,address,uint256,uint256,uint8)[],(uint256,uint256,bytes)[])":"db76db9c","getRoleAdmin(bytes32)":"248a9ca3","getSealedBids(string)":"b576981e","grantRole(bytes32,address)":"2f2ff15d","hasRole(bytes32,address)":"91d14854","name()":"06fdde03","payCoupon(string,address[])":"a0124cc8","redeem(string,address[])":"1de69bc5","renounceRole(bytes32,address)":"36568abe","revokeRole(bytes32,address)":"d547741f","supportsInterface(bytes4)":"01ffc9a7","withdrawFailedIssuance(string)":"26d0ff90"},"id":84}