{"abi":[{"type":"constructor","inputs":[],"stateMutability":"nonpayable"},{"type":"function","name":"exists","inputs":[{"name":"name","type":"string","internalType":"string"}],"outputs":[{"name":"","type":"bool","internalType":"bool"}],"stateMutability":"view"},{"type":"function","name":"getContract","inputs":[{"name":"name","type":"string","internalType":"string"}],"outputs":[{"name":"contractAddress","type":"address","internalType":"address"}],"stateMutability":"view"},{"type":"function","name":"owner","inputs":[],"outputs":[{"name":"","type":"address","internalType":"address"}],"stateMutability":"view"},{"type":"function","name":"renounceOwnership","inputs":[],"outputs":[],"stateMutability":"nonpayable"},{"type":"function","name":"setContract","inputs":[{"name":"name","type":"string","internalType":"string"},{"name":"contractAddress","type":"address","internalType":"address"}],"outputs":[],"stateMutability":"nonpayable"},{"type":"function","name":"transferOwnership","inputs":[{"name":"newOwner","type":"address","internalType":"address"}],"outputs":[],"stateMutability":"nonpayable"},{"type":"function","name":"tryGetContract","inputs":[{"name":"name","type":"string","internalType":"string"}],"outputs":[{"name":"found","type":"bool","internalType":"bool"},{"name":"contractAddress","type":"address","internalType":"address"}],"stateMutability":"view"},{"type":"event","name":"ContractAdded","inputs":[{"name":"name","type":"string","indexed":false,"internalType":"string"},{"name":"newAddress","type":"address","indexed":false,"internalType":"address"}],"anonymous":false},{"type":"event","name":"ContractUpdated","inputs":[{"name":"name","type":"string","indexed":false,"internalType":"string"},{"name":"oldAddress","type":"address","indexed":false,"internalType":"address"},{"name":"newAddress","type":"address","indexed":false,"internalType":"address"}],"anonymous":false},{"type":"event","name":"OwnershipTransferred","inputs":[{"name":"previousOwner","type":"address","indexed":true,"internalType":"address"},{"name":"newOwner","type":"address","indexed":true,"internalType":"address"}],"anonymous":false},{"type":"error","name":"ContractNotFound","inputs":[{"name":"contractAddress","type":"string","internalType":"string"}]},{"type":"error","name":"InvalidContractAddress","inputs":[{"name":"contractAddress","type":"address","internalType":"address"}]},{"type":"error","name":"OwnableInvalidOwner","inputs":[{"name":"owner","type":"address","internalType":"address"}]},{"type":"error","name":"OwnableUnauthorizedAccount","inputs":[{"name":"account","type":"address","internalType":"address"}]}],"bytecode":{"object":"0x608080604052346075573315605f5760008054336001600160a01b0319821681178355916001600160a01b03909116907f8be0079c531659141344cd1fd0a4f28419497f9722a3daafe3b4186f6b6457e09080a3610534908161007b8239f35b631e4fbdf760e01b600052600060045260246000fd5b600080fdfe608080604052600436101561001357600080fd5b60003560e01c908163261a323e146104085750806335817773146103565780633f0ed0df14610202578063434b5d5a14610180578063715018a6146101275780638da5cb5b146100fe5763f2fde38b1461006c57600080fd5b346100f95760203660031901126100f9576004356001600160a01b038116908190036100f95761009a61050b565b80156100e357600080546001600160a01b03198116831782556001600160a01b0316907f8be0079c531659141344cd1fd0a4f28419497f9722a3daafe3b4186f6b6457e09080a3005b631e4fbdf760e01b600052600060045260246000fd5b600080fd5b346100f95760003660031901126100f9576000546040516001600160a01b039091168152602090f35b346100f95760003660031901126100f95761014061050b565b600080546001600160a01b0319811682556001600160a01b03167f8be0079c531659141344cd1fd0a4f28419497f9722a3daafe3b4186f6b6457e08280a3005b346100f95760203660031901126100f95760043567ffffffffffffffff81116100f9576101b1903690600401610484565b6101d9602060405183819483830196873781016000838201520301601f1981018352826104b2565b5190206000526001602052604060018060a01b0381600020541681519080151582526020820152f35b346100f95760403660031901126100f95760043567ffffffffffffffff81116100f957610233903690600401610484565b6024356001600160a01b0381169291908390036100f95761025261050b565b8215610341576040516020810190828483376102826020828581016000838201520301601f1981018352826104b2565b519020600090815260016020526040902080546001600160a01b0319811685179091556001600160a01b0316806102f857507f8b4ef7d4e5bc8f098e6f637ac0acf4aee47b3f027efea6307264b06b4bc9d298926102ed6040519384936040855260408501916104ea565b9060208301520390a1005b7f508230d9e989b49c651e1c7be29de727f16d9c1027f7660466911e442c3121fb936103316040519485946060865260608601916104ea565b91602084015260408301520390a1005b826319bb402960e01b60005260045260246000fd5b346100f95760203660031901126100f95760043567ffffffffffffffff81116100f957610387903690600401610484565b6040516020810190828483376103b16020828581016000838201520301601f1981018352826104b2565b5190206000908152600160205260409020546001600160a01b03169081156103de57602082604051908152f35b60405163e07e4cb160e01b815260206004820152928392506104049160248401916104ea565b0390fd5b346100f95760203660031901126100f95760043567ffffffffffffffff81116100f95761045f602061043f84933690600401610484565b80838693970196873781016000838201520301601f1981018352826104b2565b5190206000526001602052602060018060a01b03604060002054161515604051908152f35b9181601f840112156100f95782359167ffffffffffffffff83116100f957602083818601950101116100f957565b90601f8019910116810190811067ffffffffffffffff8211176104d457604052565b634e487b7160e01b600052604160045260246000fd5b908060209392818452848401376000828201840152601f01601f1916010190565b6000546001600160a01b0316330361051f57565b63118cdaa760e01b6000523360045260246000fd","linkReferences":{}},"methodIdentifiers":{"exists(string)":"261a323e","getContract(string)":"35817773","owner()":"8da5cb5b","renounceOwnership()":"715018a6","setContract(string,address)":"3f0ed0df","transferOwnership(address)":"f2fde38b","tryGetContract(string)":"434b5d5a"},"id":71}