{"abi":[{"type":"constructor","inputs":[{"name":"_name","type":"string","internalType":"string"}],"stateMutability":"nonpayable"},{"type":"function","name":"DEFAULT_ADMIN_ROLE","inputs":[],"outputs":[{"name":"","type":"bytes32","internalType":"bytes32"}],"stateMutability":"view"},{"type":"function","name":"auctionAllocations","inputs":[{"name":"","type":"bytes32","internalType":"bytes32"},{"name":"","type":"uint256","internalType":"uint256"}],"outputs":[{"name":"isin","type":"string","internalType":"string"},{"name":"bidder","type":"address","internalType":"address"},{"name":"units","type":"uint256","internalType":"uint256"},{"name":"rate","type":"uint256","internalType":"uint256"},{"name":"auctionType","type":"uint8","internalType":"enum IBondAuction.AuctionType"}],"stateMutability":"view"},{"type":"function","name":"auctionBids","inputs":[{"name":"","type":"bytes32","internalType":"bytes32"},{"name":"","type":"uint256","internalType":"uint256"}],"outputs":[{"name":"bidder","type":"address","internalType":"address"},{"name":"ciphertext","type":"bytes","internalType":"bytes"},{"name":"plaintextHash","type":"bytes32","internalType":"bytes32"}],"stateMutability":"view"},{"type":"function","name":"auctionMetadata","inputs":[{"name":"","type":"bytes32","internalType":"bytes32"}],"outputs":[{"name":"isin","type":"string","internalType":"string"},{"name":"owner","type":"address","internalType":"address"},{"name":"end","type":"uint64","internalType":"uint64"},{"name":"auctionPubKey","type":"bytes","internalType":"bytes"},{"name":"bond","type":"address","internalType":"address"},{"name":"offering","type":"uint256","internalType":"uint256"},{"name":"auctionType","type":"uint8","internalType":"enum IBondAuction.AuctionType"}],"stateMutability":"view"},{"type":"function","name":"auctionStatus","inputs":[{"name":"","type":"bytes32","internalType":"bytes32"}],"outputs":[{"name":"","type":"uint8","internalType":"enum IBondAuction.AuctionStatus"}],"stateMutability":"view"},{"type":"function","name":"bidderNonceUsed","inputs":[{"name":"","type":"bytes32","internalType":"bytes32"},{"name":"","type":"address","internalType":"address"},{"name":"","type":"uint256","internalType":"uint256"}],"outputs":[{"name":"","type":"bool","internalType":"bool"}],"stateMutability":"view"},{"type":"function","name":"cancelAuction","inputs":[{"name":"_id","type":"bytes32","internalType":"bytes32"},{"name":"_caller","type":"address","internalType":"address"}],"outputs":[{"name":"offering","type":"uint256","internalType":"uint256"}],"stateMutability":"nonpayable"},{"type":"function","name":"closeAuction","inputs":[{"name":"_id","type":"bytes32","internalType":"bytes32"},{"name":"_caller","type":"address","internalType":"address"}],"outputs":[{"name":"","type":"tuple[]","internalType":"struct IBondAuction.Bid[]","components":[{"name":"bidder","type":"address","internalType":"address"},{"name":"ciphertext","type":"bytes","internalType":"bytes"},{"name":"plaintextHash","type":"bytes32","internalType":"bytes32"}]}],"stateMutability":"nonpayable"},{"type":"function","name":"createAuction","inputs":[{"name":"_isin","type":"string","internalType":"string"},{"name":"_owner","type":"address","internalType":"address"},{"name":"_end","type":"uint64","internalType":"uint64"},{"name":"_auctionPubKey","type":"bytes","internalType":"bytes"},{"name":"_bond","type":"address","internalType":"address"},{"name":"_offering","type":"uint256","internalType":"uint256"},{"name":"_auctionType","type":"uint8","internalType":"enum IBondAuction.AuctionType"}],"outputs":[{"name":"","type":"bytes32","internalType":"bytes32"}],"stateMutability":"nonpayable"},{"type":"function","name":"eip712Domain","inputs":[],"outputs":[{"name":"fields","type":"bytes1","internalType":"bytes1"},{"name":"name","type":"string","internalType":"string"},{"name":"version","type":"string","internalType":"string"},{"name":"chainId","type":"uint256","internalType":"uint256"},{"name":"verifyingContract","type":"address","internalType":"address"},{"name":"salt","type":"bytes32","internalType":"bytes32"},{"name":"extensions","type":"uint256[]","internalType":"uint256[]"}],"stateMutability":"view"},{"type":"function","name":"finaliseAuction","inputs":[{"name":"_id","type":"bytes32","internalType":"bytes32"},{"name":"_caller","type":"address","internalType":"address"},{"name":"_alloc","type":"tuple[]","internalType":"struct IBondAuction.Allocation[]","components":[{"name":"isin","type":"string","internalType":"string"},{"name":"bidder","type":"address","internalType":"address"},{"name":"units","type":"uint256","internalType":"uint256"},{"name":"rate","type":"uint256","internalType":"uint256"},{"name":"auctionType","type":"uint8","internalType":"enum IBondAuction.AuctionType"}]},{"name":"_proofs","type":"tuple[]","internalType":"struct IBondAuction.BidVerification[]","components":[{"name":"bidIndex","type":"uint256","internalType":"uint256"},{"name":"bidderNonce","type":"uint256","internalType":"uint256"},{"name":"bidderSig","type":"bytes","internalType":"bytes"}]}],"outputs":[{"name":"","type":"uint256","internalType":"uint256"},{"name":"","type":"uint256","internalType":"uint256"}],"stateMutability":"nonpayable"},{"type":"function","name":"getAllocations","inputs":[{"name":"_id","type":"bytes32","internalType":"bytes32"}],"outputs":[{"name":"","type":"tuple[]","internalType":"struct IBondAuction.Allocation[]","components":[{"name":"isin","type":"string","internalType":"string"},{"name":"bidder","type":"address","internalType":"address"},{"name":"units","type":"uint256","internalType":"uint256"},{"name":"rate","type":"uint256","internalType":"uint256"},{"name":"auctionType","type":"uint8","internalType":"enum IBondAuction.AuctionType"}]}],"stateMutability":"view"},{"type":"function","name":"getAuction","inputs":[{"name":"_id","type":"bytes32","internalType":"bytes32"}],"outputs":[{"name":"","type":"tuple","internalType":"struct IBondAuction.AuctionMetadata","components":[{"name":"isin","type":"string","internalType":"string"},{"name":"owner","type":"address","internalType":"address"},{"name":"end","type":"uint64","internalType":"uint64"},{"name":"auctionPubKey","type":"bytes","internalType":"bytes"},{"name":"bond","type":"address","internalType":"address"},{"name":"offering","type":"uint256","internalType":"uint256"},{"name":"auctionType","type":"uint8","internalType":"enum IBondAuction.AuctionType"}]}],"stateMutability":"view"},{"type":"function","name":"getAuctionId","inputs":[{"name":"_isin","type":"string","internalType":"string"}],"outputs":[{"name":"","type":"bytes32","internalType":"bytes32"}],"stateMutability":"view"},{"type":"function","name":"getAuctionStatus","inputs":[{"name":"_id","type":"bytes32","internalType":"bytes32"}],"outputs":[{"name":"","type":"uint8","internalType":"enum IBondAuction.AuctionStatus"}],"stateMutability":"view"},{"type":"function","name":"getRoleAdmin","inputs":[{"name":"role","type":"bytes32","internalType":"bytes32"}],"outputs":[{"name":"","type":"bytes32","internalType":"bytes32"}],"stateMutability":"view"},{"type":"function","name":"getSealedBids","inputs":[{"name":"_id","type":"bytes32","internalType":"bytes32"}],"outputs":[{"name":"","type":"tuple[]","internalType":"struct IBondAuction.Bid[]","components":[{"name":"bidder","type":"address","internalType":"address"},{"name":"ciphertext","type":"bytes","internalType":"bytes"},{"name":"plaintextHash","type":"bytes32","internalType":"bytes32"}]}],"stateMutability":"view"},{"type":"function","name":"grantRole","inputs":[{"name":"role","type":"bytes32","internalType":"bytes32"},{"name":"account","type":"address","internalType":"address"}],"outputs":[],"stateMutability":"nonpayable"},{"type":"function","name":"hasRole","inputs":[{"name":"role","type":"bytes32","internalType":"bytes32"},{"name":"account","type":"address","internalType":"address"}],"outputs":[{"name":"","type":"bool","internalType":"bool"}],"stateMutability":"view"},{"type":"function","name":"isinToAuctionCount","inputs":[{"name":"","type":"string","internalType":"string"}],"outputs":[{"name":"","type":"uint256","internalType":"uint256"}],"stateMutability":"view"},{"type":"function","name":"name","inputs":[],"outputs":[{"name":"","type":"string","internalType":"string"}],"stateMutability":"view"},{"type":"function","name":"renounceRole","inputs":[{"name":"role","type":"bytes32","internalType":"bytes32"},{"name":"callerConfirmation","type":"address","internalType":"address"}],"outputs":[],"stateMutability":"nonpayable"},{"type":"function","name":"revokeRole","inputs":[{"name":"role","type":"bytes32","internalType":"bytes32"},{"name":"account","type":"address","internalType":"address"}],"outputs":[],"stateMutability":"nonpayable"},{"type":"function","name":"submitBid","inputs":[{"name":"_id","type":"bytes32","internalType":"bytes32"},{"name":"_ciphertext","type":"bytes","internalType":"bytes"},{"name":"_plaintextHash","type":"bytes32","internalType":"bytes32"}],"outputs":[{"name":"bidIndex","type":"uint256","internalType":"uint256"}],"stateMutability":"nonpayable"},{"type":"function","name":"supportsInterface","inputs":[{"name":"interfaceId","type":"bytes4","internalType":"bytes4"}],"outputs":[{"name":"","type":"bool","internalType":"bool"}],"stateMutability":"view"},{"type":"event","name":"AuctionCancelled","inputs":[{"name":"id","type":"bytes32","indexed":true,"internalType":"bytes32"},{"name":"isin","type":"string","indexed":false,"internalType":"string"}],"anonymous":false},{"type":"event","name":"AuctionClosed","inputs":[{"name":"id","type":"bytes32","indexed":true,"internalType":"bytes32"},{"name":"isin","type":"string","indexed":false,"internalType":"string"},{"name":"bidCount","type":"uint256","indexed":false,"internalType":"uint256"}],"anonymous":false},{"type":"event","name":"AuctionCreated","inputs":[{"name":"id","type":"bytes32","indexed":true,"internalType":"bytes32"},{"name":"admin","type":"address","indexed":true,"internalType":"address"},{"name":"isin","type":"string","indexed":false,"internalType":"string"},{"name":"offering","type":"uint256","indexed":false,"internalType":"uint256"},{"name":"end","type":"uint64","indexed":false,"internalType":"uint64"},{"name":"auctionPubKey","type":"bytes","indexed":false,"internalType":"bytes"},{"name":"auctionType","type":"uint8","indexed":false,"internalType":"enum IBondAuction.AuctionType"}],"anonymous":false},{"type":"event","name":"AuctionFinalized","inputs":[{"name":"id","type":"bytes32","indexed":true,"internalType":"bytes32"},{"name":"isin","type":"string","indexed":false,"internalType":"string"}],"anonymous":false},{"type":"event","name":"BidCancelled","inputs":[{"name":"id","type":"bytes32","indexed":true,"internalType":"bytes32"},{"name":"bidder","type":"address","indexed":true,"internalType":"address"},{"name":"isin","type":"string","indexed":false,"internalType":"string"},{"name":"plaintextHash","type":"bytes32","indexed":false,"internalType":"bytes32"}],"anonymous":false},{"type":"event","name":"BidSubmitted","inputs":[{"name":"id","type":"bytes32","indexed":true,"internalType":"bytes32"},{"name":"bidder","type":"address","indexed":true,"internalType":"address"},{"name":"isin","type":"string","indexed":false,"internalType":"string"},{"name":"index","type":"uint256","indexed":false,"internalType":"uint256"},{"name":"plaintextHash","type":"bytes32","indexed":false,"internalType":"bytes32"},{"name":"ciphertext","type":"bytes","indexed":false,"internalType":"bytes"}],"anonymous":false},{"type":"event","name":"EIP712DomainChanged","inputs":[],"anonymous":false},{"type":"event","name":"RoleAdminChanged","inputs":[{"name":"role","type":"bytes32","indexed":true,"internalType":"bytes32"},{"name":"previousAdminRole","type":"bytes32","indexed":true,"internalType":"bytes32"},{"name":"newAdminRole","type":"bytes32","indexed":true,"internalType":"bytes32"}],"anonymous":false},{"type":"event","name":"RoleGranted","inputs":[{"name":"role","type":"bytes32","indexed":true,"internalType":"bytes32"},{"name":"account","type":"address","indexed":true,"internalType":"address"},{"name":"sender","type":"address","indexed":true,"internalType":"address"}],"anonymous":false},{"type":"event","name":"RoleRevoked","inputs":[{"name":"role","type":"bytes32","indexed":true,"internalType":"bytes32"},{"name":"account","type":"address","indexed":true,"internalType":"address"},{"name":"sender","type":"address","indexed":true,"internalType":"address"}],"anonymous":false},{"type":"error","name":"AccessControlBadConfirmation","inputs":[]},{"type":"error","name":"AccessControlUnauthorizedAccount","inputs":[{"name":"account","type":"address","internalType":"address"},{"name":"neededRole","type":"bytes32","internalType":"bytes32"}]},{"type":"error","name":"AllocationTypeMismatch","inputs":[]},{"type":"error","name":"AuctionNotFound","inputs":[{"name":"id","type":"bytes32","internalType":"bytes32"}]},{"type":"error","name":"AuctionNotFoundForIsin","inputs":[{"name":"isin","type":"string","internalType":"string"}]},{"type":"error","name":"AuctionTypeMustBePrice","inputs":[]},{"type":"error","name":"AuctioneerPubkeyMissing","inputs":[]},{"type":"error","name":"BiddingEndNotFuture","inputs":[]},{"type":"error","name":"CannotCancelAuctionInThisState","inputs":[]},{"type":"error","name":"CiphertextRequired","inputs":[]},{"type":"error","name":"ECDSAInvalidSignature","inputs":[]},{"type":"error","name":"ECDSAInvalidSignatureLength","inputs":[{"name":"length","type":"uint256","internalType":"uint256"}]},{"type":"error","name":"ECDSAInvalidSignatureS","inputs":[{"name":"s","type":"bytes32","internalType":"bytes32"}]},{"type":"error","name":"FirstAuctionMustBeRate","inputs":[]},{"type":"error","name":"InBidPhase","inputs":[]},{"type":"error","name":"IncorrectAuctionPhase","inputs":[{"name":"id","type":"bytes32","internalType":"bytes32"},{"name":"expected","type":"uint8","internalType":"uint8"},{"name":"actual","type":"uint8","internalType":"uint8"}]},{"type":"error","name":"InvalidAuctionOwner","inputs":[]},{"type":"error","name":"InvalidBidIndex","inputs":[{"name":"max","type":"uint256","internalType":"uint256"},{"name":"actual","type":"uint256","internalType":"uint256"}]},{"type":"error","name":"InvalidBidNonce","inputs":[]},{"type":"error","name":"InvalidBidSig","inputs":[]},{"type":"error","name":"InvalidRate","inputs":[]},{"type":"error","name":"InvalidShortString","inputs":[]},{"type":"error","name":"InvalidUnits","inputs":[]},{"type":"error","name":"MissingBidSig","inputs":[]},{"type":"error","name":"NoAllocations","inputs":[]},{"type":"error","name":"NotAuctionOwner","inputs":[]},{"type":"error","name":"NotInBidPhase","inputs":[]},{"type":"error","name":"OfferingZero","inputs":[]},{"type":"error","name":"OverAllocation","inputs":[{"name":"total","type":"uint256","internalType":"uint256"},{"name":"offering","type":"uint256","internalType":"uint256"}]},{"type":"error","name":"PlaintextHashRequired","inputs":[]},{"type":"error","name":"PreviousAuctionActive","inputs":[{"name":"id","type":"bytes32","internalType":"bytes32"}]},{"type":"error","name":"ProofLengthMismatch","inputs":[{"name":"expected","type":"uint256","internalType":"uint256"},{"name":"actual","type":"uint256","internalType":"uint256"}]},{"type":"error","name":"RatesMustMatch","inputs":[]},{"type":"error","name":"StringTooLong","inputs":[{"name":"str","type":"string","internalType":"string"}]}],"bytecode":{"object":"0x610160806040523461032657612eca803803809161001d828561032b565b8339810190602081830312610326578051906001600160401b038211610326570181601f820112156103265780516001600160401b0381116103105760405192610071601f8301601f19166020018561032b565b818452602082840101116103265761008f916020808501910161034e565b6040805161009d828261032b565b600e815260208101906d109bdb99105d58dd1a5bdb909a5960921b82528251916100c7848461032b565b600183526020830191603160f81b83526100e0816103ff565b610120526100ed84610590565b61014052519020918260e05251902080610100524660a05282519060208201927f8b73c3c69bb8fe3d512ecc4cf759cc79239f7b179b0ffacaa9a75d522b39400f84528483015260608201524660808201523060a082015260a0815261015460c08261032b565b5190206080523060c05261016733610371565b5081516001600160401b03811161031057600354600181811c91168015610306575b60208210146102f057601f811161028b575b50602092601f8211600114610226579281929360009261021b575b50508160011b916000199060031b1c1916176003555b516127d790816106d38239608051816125b7015260a0518161266e015260c05181612581015260e051816126060152610100518161262c01526101205181610c5201526101405181610c7b0152f35b0151905038806101b6565b601f198216936003600052806000209160005b868110610273575083600195961061025a575b505050811b016003556101cc565b015160001960f88460031b161c1916905538808061024c565b91926020600181928685015181550194019201610239565b60036000527fc2575a0e9e593c00f959f8c92f12db2869c3395a3b0502d05e2516446f71f85b601f830160051c810191602084106102e6575b601f0160051c01905b8181106102da575061019b565b600081556001016102cd565b90915081906102c4565b634e487b7160e01b600052602260045260246000fd5b90607f1690610189565b634e487b7160e01b600052604160045260246000fd5b600080fd5b601f909101601f19168101906001600160401b0382119082101761031057604052565b60005b8381106103615750506000910152565b8181015183820152602001610351565b6001600160a01b0381166000908152600080516020612eaa833981519152602052604090205460ff166103f9576001600160a01b03166000818152600080516020612eaa83398151915260205260408120805460ff191660011790553391907f2f8788117e7eff1d82e926ec794901d17c78024a50270940304540a733656f0d8180a4600190565b50600090565b9081516020811060001461047a575090601f81511161043b57602081519101516020821061042b571790565b6000198260200360031b1b161790565b6044604051809263305a27a960e01b82526020600483015261046c815180928160248601526020868601910161034e565b601f01601f19168101030190fd5b6001600160401b03811161031057600154600181811c91168015610586575b60208210146102f057601f8111610550575b50602092601f82116001146104eb57928192936000926104e0575b50508160011b916000199060031b1c19161760015560ff90565b0151905038806104c6565b601f198216936001600052806000209160005b868110610538575083600195961061051f575b505050811b0160015560ff90565b015160001960f88460031b161c19169055388080610511565b919260206001819286850151815501940192016104fe565b6001600052601f6020600020910160051c810190601f830160051c015b81811061057a57506104ab565b6000815560010161056d565b90607f1690610499565b908151602081106000146105bc575090601f81511161043b57602081519101516020821061042b571790565b6001600160401b03811161031057600254600181811c911680156106c8575b60208210146102f057601f8111610692575b50602092601f821160011461062d5792819293600092610622575b50508160011b916000199060031b1c19161760025560ff90565b015190503880610608565b601f198216936002600052806000209160005b86811061067a5750836001959610610661575b505050811b0160025560ff90565b015160001960f88460031b161c19169055388080610653565b91926020600181928685015181550194019201610640565b6002600052601f6020600020910160051c810190601f830160051c015b8181106106bc57506105ed565b600081556001016106af565b90607f16906105db56fe608080604052600436101561001357600080fd5b60003560e01c90816301ffc9a714611d9c5750806306fdde0314611cbb57806315924b5b14611b535780631b1acf4c146119f2578063248a9ca3146119c55780632f2ff15d1461198557806336568abe1461193f5780633dc37c89146118bf57806341686a22146117ac5780636087c5b8146116e15780636d85f7501461165157806377765bb2146115a15780638301695514610d91578063839d504614610d3657806384b0196e14610c395780638c3d0b361461077957806391d148541461072c57806392547523146106dc578063a217fddf14610710578063b0603326146106dc578063c1dfc01d1461051f578063c620adbf146104d2578063d547741f1461048b578063f675f6d1146104055763fe581a601461013257600080fd5b34610400576060366003190112610400576004356024356001600160401b03811161040057610165903690600401612190565b91906044359161017481612453565b600081815260046020526040902060018101549094906001600160a01b038116156103eb5760a01c6001600160401b031642116103da5780156103c9578160005260066020526040600020604051906101cc82611e5f565b3382526101da36848761212c565b6020830190815260408301918783528054600160401b81101561039d5761020691600182018155611fc0565b9390936103b3575183546001600160a01b0319166001600160a01b039190911617835551805160018401916001600160401b03821161039d576102538261024d8554611def565b8561220e565b602090601f8311600114610332579180610289926002969594600092610327575b50508160011b916000199060031b1c19161790565b90555b51910155816000526006602052604060002054936000198501948511610311576020956103066102ec927fa9754f49a724581aa51d4d59fa875c477c0e0fd791c3495815eba0c88aac6a8594604051948594608086526080860190611ff2565b91898b860152604085015283820360608501523397612278565b0390a3604051908152f35b634e487b7160e01b600052601160045260246000fd5b015190503880610274565b90601f1983169184600052816000209260005b81811061038557509160019391856002989796941061036c575b505050811b01905561028c565b015160001960f88460031b161c1916905538808061035f565b92936020600181928786015181550195019301610345565b634e487b7160e01b600052604160045260246000fd5b634e487b7160e01b600052600060045260246000fd5b63c8c629a760e01b60005260046000fd5b63f391327360e01b60005260046000fd5b8263d4f4c11560e01b60005260045260246000fd5b600080fd5b34610400576020366003190112610400576004356001600160401b03811161040057610435903690600401612172565b6040518061044383826121d0565b039020549081156104625760209161045a916124af565b604051908152f35b604051631c23fb8f60e31b815260206004820152908190610487906024830190611f62565b0390fd5b34610400576040366003190112610400576104d06004356104aa611f94565b906104cb6104c682600052600060205260016040600020015490565b61230b565b6123d1565b005b34610400576020366003190112610400576004356001600160401b038111610400576105136105076020923690600401612172565b604051918291826121d0565b03902054604051908152f35b346104005760403660031901126104005760043561053b611f94565b610543612299565b61054c82612453565b6000828152600460205260409020600181015490916001600160a01b0382169081156106c7576001600160a01b0316036106b65760a01c6001600160401b03164211156106a5577fc1187f7447e8afb8408ace9e59841dd1da56ec410c342a94e9b80ac1783bcd5e6105f583928360005260056020526040600020600260ff19825416179055836000526006602052604060002054604051928392604084526040840190611ff2565b9060208301520390a260005260066020526040600020805461061681612115565b916106246040519384611e7a565b818352602083019060005260206000206000915b838310610651576040518061064d8782612091565b0390f35b6003602060019260405161066481611e5f565b848060a01b0386541681526040516106898161068281898b01611ff2565b0382611e7a565b8382015260028601546040820152815201920192019190610638565b637762dc2f60e11b60005260046000fd5b631de796db60e01b60005260046000fd5b8463d4f4c11560e01b60005260045260246000fd5b3461040057602036600319011261040057600435600052600560205261064d60ff60406000205416604051918291826121bd565b3461040057600036600319011261040057602060405160008152f35b3461040057604036600319011261040057610745611f94565b600435600052600060205260406000209060018060a01b0316600052602052602060ff604060002054166040519015158152f35b346104005760e0366003190112610400576004356001600160401b038111610400576107a9903690600401612172565b6107b1611f94565b604435906001600160401b038216809203610400576064356001600160401b038111610400576107e5903690600401612190565b906084359360018060a01b0385168095036104005760a4359560c4356003811015958661040057610814612299565b8515610c28576001600160a01b0316958615610c175742841115610c06578815610bf5576040518061084685826121d0565b03902080549060001982146103115760018201905580610b875750610a925780610b76575b6108866040518061087c85826121d0565b03902054836124af565b966040519061089482611e29565b8382526020820188815260408301918683526108b1368a8a61212c565b606085019081526080850191825260a08501928d845260c08601946108d688876121ee565b8d6000526004602052604060002096518051906001600160401b03821161039d5761090b826109058b54611def565b8b61220e565b602090601f8311600114610b0f5761093b9291600091836103275750508160011b916000199060031b1c19161790565b87555b9051600187018054925167ffffffffffffffff60a01b60a09190911b166001600160a01b039092166001600160e01b03199093169290921717905551805160028601916001600160401b03821161039d5761099d8261024d8554611def565b602090601f8311600114610aa8576109cd9291600091836103275750508160011b916000199060031b1c19161790565b90555b51600384810180546001600160a01b0319166001600160a01b03939093169290921790915590516004840155905190811015610a925760209989977f89ad32b5327dda2c5db3c7f2b051c0da94e2518c5facf49bff8ce1c49ca0206c97610a7097610a44610a879560056103069801612260565b8a60005260058e526040600020600160ff1982541617905560405198899860a08a5260a08a0190611f62565b938e89015260408801528683036060880152612278565b916080840190611f87565b634e487b7160e01b600052602160045260246000fd5b90601f1983169184600052816000209260005b818110610af75750908460019594939210610ade575b505050811b0190556109d0565b015160001960f88460031b161c191690558f8080610ad1565b92936020600181928786015181550195019301610abb565b90601f198316918a600052816000209260005b818110610b5e5750908460019594939210610b45575b505050811b01875561093e565b015160001960f88460031b161c19169055388080610b38565b92936020600181928786015181550195019301610b22565b639ad3f3c960e01b60005260046000fd5b610b929150836124af565b80600052600560205260ff604060002054166005811015610a9257600311610be15750600181141580610bd6575b1561086b5763a77403c560e01b60005260046000fd5b506002811415610bc0565b6362b9940160e11b60005260045260246000fd5b635473cfdf60e01b60005260046000fd5b63ba7fe89960e01b60005260046000fd5b6390c2b15960e01b60005260046000fd5b636e2cb74760e11b60005260046000fd5b3461040057600036600319011261040057610cd8610c767f00000000000000000000000000000000000000000000000000000000000000006124ea565b610c9f7f0000000000000000000000000000000000000000000000000000000000000000612547565b6020610ce660405192610cb28385611e7a565b600084526000368137604051958695600f60f81b875260e08588015260e0870190611f62565b908582036040870152611f62565b466060850152306080850152600060a085015283810360c085015281808451928381520193019160005b828110610d1f57505050500390f35b835185528695509381019392810192600101610d10565b3461040057606036600319011261040057610d4f611f94565b600435600052600860205260406000209060018060a01b03166000526020526040600020604435600052602052602060ff604060002054166040519015158152f35b3461040057608036600319011261040057600435610dad611f94565b604435916001600160401b0383116104005736602384011215610400578260040135610dd881612115565b93610de66040519586611e7a565b81855260208501906024829360051b820101903682116104005760248101925b8284106114fa5750505050606435916001600160401b0383116104005736602384011215610400578260040135610e3c81612115565b93610e4a6040519586611e7a565b8185526024602086019260051b820101903682116104005760248101925b8284106114735750505050610e7b612299565b6000818152600560205260ff60408220541690506005811015610a925760020361142a5780600052600460205260406000209360018060a01b036001860154169081156103eb576001600160a01b0316036106b65784511561141957825185518082036114025750508060005260056020526040600020600360ff1982541617905560ff600585015416906000938493600384101597886113ee57600285141591826113c4575b50865b81518810156111ae57610f3888836121fa565b51610f4389866121fa565b51906080810151916003831015610a92578c610a9257886000930361119f5760408201918251156111905760608101805115611181578b889182611175575b505061116657602060018060a01b0391015116888452600660205260408420825181548091101561112c57508251610fb991611fc0565b5060408301908151511561111d57611059839260428d6020600261106296015498019788516040519160208301937f9689f7b32669c381a98b478c52279da47a33e9cbcc8198011eeb4df18e518c3785528960408501526060840152608083015260a082015260a0815261102e60c082611e7a565b51902061103961257e565b906040519161190160f01b83526002830152602282015220905190612694565b909291926126d0565b6001600160a01b03160361110e578884526008602090815260408086206001600160a01b038416875282528086208451875290915284205460ff166110ff578884526008602052604084209060018060a01b03168452602052604083209051835260205260408220600160ff198254161790555182018092116110eb5750600190970196610f25565b634e487b7160e01b81526011600452602490fd5b632289145160e11b8452600484fd5b632d526f0b60e01b8452600484fd5b631163262360e21b8652600486fd5b85849160001981019081116111525760449251906308b74e0d60e31b8352600452602452fd5b634e487b7160e01b82526011600452602482fd5b639cfbd9b960e01b8452600484fd5b51141590508b38610f82565b636a43f8d160e01b8552600485fd5b630e433c2360e31b8452600484fd5b6308bdf33d60e01b8352600483fd5b8489918885806113bc575b6113ab576004840154808311611393575060005b8551811015611348578360005260076020526040600020906111ef81886121fa565b51918054600160401b81101561039d5761120e91600182018155612075565b9290926103b35780518051906001600160401b03821161039d5761123c826112368754611def565b8761220e565b602090601f83116001146112de57918061127092608095946000926112d35750508160011b916000199060031b1c19161790565b84555b60208101516001850180546001600160a01b0319166001600160a01b03929092169190911790556040810151600285015560608101516003808601919091559101519290831015610a925760019260046112cd9201612260565b016111cd565b015190508c80610274565b90601f1983169186600052816000209260005b8181106113305750916001939185608097969410611317575b505050811b018455611273565b015160001960f88460031b161c191690558b808061130a565b929360206001819287860151815501950193016112f1565b506040927fdf9b09d5be97e029581f264b7bf9857c49203ab24ab94faf735c59a861b70774611384868651918291602083526020830190611ff2565b0390a282519182526020820152f35b82631c84bd9b60e01b60005260045260245260446000fd5b636a43f8d160e01b60005260046000fd5b5080156111b9565b9095508551156113da5751606001519489610f22565b634e487b7160e01b87526032600452602487fd5b634e487b7160e01b87526021600452602487fd5b633a67ea2360e11b60005260045260245260446000fd5b63378610c560e01b60005260046000fd5b6000818152600560205260ff604082205416600581101561145f576064926395f102cb60e01b83526004526002602452604452fd5b634e487b7160e01b82526021600452602482fd5b83356001600160401b038111610400578201906060602319833603011261040057604051916114a183611e5f565b602481013583526044810135602084015260648101356001600160401b0381116104005760249101019036601f83011215610400576020926114ea84933690858135910161212c565b6040820152815201930192610e68565b83356001600160401b0381116104005782019060a06023198336030112610400576040519161152883611e44565b60248101356001600160401b0381116104005761154b9060243691840101612172565b83526044810135906001600160a01b03821682036104005760a491602085015260648101356040850152608481013560608501520135906003821015610400578260209392608085940152815201930192610e06565b34610400576020366003190112610400576004356000526006602052604060002080546115cd81612115565b916115db6040519384611e7a565b818352602083019060005260206000206000915b838310611604576040518061064d8782612091565b6003602060019260405161161781611e5f565b848060a01b0386541681526040516116358161068281898b01611ff2565b83820152600286015460408201528152019201920191906115ef565b346104005761165f36611faa565b90600052600760205260406000208054821015610400576116c79161168391612075565b5061168d81611e9b565b9061064d60018060a01b036001830154169160028101549060ff60046003830154920154169160405196879660a0885260a0880190611f62565b946020870152604086015260608501526080840190611f87565b3461040057602036600319011261040057600435600052600460205261176f604060002061170e81611e9b565b9061064d600182015491604051906117348261172d8160028501611ff2565b0383611e7a565b61179760018060a01b036003830154169460ff6005600485015494015416936001600160401b03604051998a9960e08b5260e08b0190611f62565b6001600160a01b03841660208b015260a09390931c1660408901528782036060890152611f62565b93608086015260a085015260c0840190611f87565b34610400576040366003190112610400576004356117c8611f94565b6117d0612299565b81600052600560205260ff604060002054166005811015610a925760038110908115916118b6575b506118a55781600052600460205260406000209060018060a01b03600183015416908115611890576001600160a01b0316036106b6576020917fcfcafa59133f45aa72e055a3f66d74b389e8b2c84df9de69c69a950b3a53342561188560048401549383600052600586526040600020600460ff1982541617905560405191829187835287830190611ff2565b0390a2604051908152f35b8363d4f4c11560e01b60005260045260246000fd5b631500922d60e11b60005260046000fd5b905015836117f8565b34610400576118cd36611faa565b9060005260066020526040600020908154811015610400576118ee91611fc0565b5060018060a01b03815416600260405192611917846119108160018501611ff2565b0385611e7a565b01546119356040519384938452606060208501526060840190611f62565b9060408301520390f35b3461040057604036600319011261040057611958611f94565b336001600160a01b03821603611974576104d0906004356123d1565b63334bd91960e11b60005260046000fd5b34610400576040366003190112610400576104d06004356119a4611f94565b906119c06104c682600052600060205260016040600020015490565b612346565b3461040057602036600319011261040057602061045a600435600052600060205260016040600020015490565b346104005760203660031901126104005760043560005260076020526040600020805490611a1f82612115565b91611a2d6040519384611e7a565b80835260208301809260005260206000206000915b838310611af057848660405191829160208301906020845251809152604083019060408160051b85010192916000905b828210611a8157505050500390f35b919360019193955060208091603f19898203018552611ae0885191608080611ab2855160a0855260a0850190611f62565b94888060a01b0387820151168785015260408101516040850152606081015160608501520151910190611f87565b9601920192018594939192611a72565b60056020600192604051611b0381611e44565b611b0c86611e9b565b8152848060a01b038587015416838201526002860154604082015260038601546060820152611b4560ff600488015416608083016121ee565b815201920192019190611a42565b3461040057602036600319011261040057600060c0604051611b7481611e29565b606081528260208201528260408201526060808201528260808201528260a082015201526004356000526004602052611c71604060002060405190611bb882611e29565b611bc181611e9b565b825261064d6001820154602084019260018060a01b03821684526001600160401b03604086019260a01c168252611c9a60405194611c0d86611c068160028701611ff2565b0387611e7a565b6060870195865260018060a01b0360038401541695608088019687526001600160401b0360ff600560048701549660a08c0197885201541695611c5460c08b0197886121ee565b6040519a8b9a60208c525160e060208d01526101008c0190611f62565b93516001600160a01b031660408b01525116606089015251878203601f19016080890152611f62565b93516001600160a01b031660a08601525160c08501525160e0840190611f87565b34610400576000366003190112610400576040516000600354611cdd81611def565b8084529060018116908115611d785750600114611d19575b61064d83611d0581850382611e7a565b604051918291602083526020830190611f62565b600360009081527fc2575a0e9e593c00f959f8c92f12db2869c3395a3b0502d05e2516446f71f85b939250905b808210611d5e57509091508101602001611d05611cf5565b919260018160209254838588010152019101909291611d46565b60ff191660208086019190915291151560051b84019091019150611d059050611cf5565b34610400576020366003190112610400576004359063ffffffff60e01b821680920361040057602091637965db0b60e01b8114908115611dde575b5015158152f35b6301ffc9a760e01b14905083611dd7565b90600182811c92168015611e1f575b6020831014611e0957565b634e487b7160e01b600052602260045260246000fd5b91607f1691611dfe565b60e081019081106001600160401b0382111761039d57604052565b60a081019081106001600160401b0382111761039d57604052565b606081019081106001600160401b0382111761039d57604052565b90601f801991011681019081106001600160401b0382111761039d57604052565b9060405191826000825492611eaf84611def565b8084529360018116908115611f1d5750600114611ed6575b50611ed492500383611e7a565b565b90506000929192526020600020906000915b818310611f01575050906020611ed49282010138611ec7565b6020919350806001915483858901015201910190918492611ee8565b905060209250611ed494915060ff191682840152151560051b82010138611ec7565b60005b838110611f525750506000910152565b8181015183820152602001611f42565b90602091611f7b81518092818552858086019101611f3f565b601f01601f1916010190565b906003821015610a925752565b602435906001600160a01b038216820361040057565b6040906003190112610400576004359060243590565b8054821015611fdc576000526003602060002091020190600090565b634e487b7160e01b600052603260045260246000fd5b6000929181549161200283611def565b8083529260018116908115612058575060011461201e57505050565b60009081526020812093945091925b83831061203e575060209250010190565b60018160209294939454838587010152019101919061202d565b915050602093945060ff929192191683830152151560051b010190565b8054821015611fdc576000526005602060002091020190600090565b602081016020825282518091526040820191602060408360051b8301019401926000915b8383106120c457505050505090565b9091929394602080600192603f19858203018652885190848060a01b038251168152604080612100858501516060878601526060850190611f62565b930151910152970193019301919392906120b5565b6001600160401b03811161039d5760051b60200190565b9291926001600160401b03821161039d5760405191612155601f8201601f191660200184611e7a565b829481845281830111610400578281602093846000960137010152565b9080601f830112156104005781602061218d9335910161212c565b90565b9181601f84011215610400578235916001600160401b038311610400576020838186019501011161040057565b919060208301926005821015610a925752565b602091906121e5839282815194859201611f3f565b01600981520190565b6003821015610a925752565b8051821015611fdc5760209160051b010190565b601f821161221b57505050565b6000526020600020906020601f840160051c83019310612256575b601f0160051c01905b81811061224a575050565b6000815560010161223f565b9091508190612236565b906003811015610a925760ff80198354169116179055565b908060209392818452848401376000828201840152601f01601f1916010190565b3360009081527fffa0b52d0805acef1685425efe15d1adc4ffc383d4544a5b1b555d071bf2aaaa602052604090205460ff16156122d257565b63e2517d3f60e01b600052336004527ffa3bc76f60aa623deabc1c26186656ad00ae438df67c18e4d7ae23bb6c0bcf9260245260446000fd5b60008181526020818152604080832033845290915290205460ff161561232e5750565b63e2517d3f60e01b6000523360045260245260446000fd5b6000818152602081815260408083206001600160a01b038616845290915290205460ff166123ca576000818152602081815260408083206001600160a01b0395909516808452949091528120805460ff19166001179055339291907f2f8788117e7eff1d82e926ec794901d17c78024a50270940304540a733656f0d9080a4600190565b5050600090565b6000818152602081815260408083206001600160a01b038616845290915290205460ff16156123ca576000818152602081815260408083206001600160a01b0395909516808452949091528120805460ff19169055339291907ff6391f5c32d9c69d2a47ea670b442974b53935d1edc7fd64eb21e047a839171b9080a4600190565b6000818152600560205260ff60408220541690506005811015610a925760010361247a5750565b6000818152600560205260ff604082205416600581101561145f576064926395f102cb60e01b83526004526001602452604452fd5b906124e46020604051809382806124cf8185019889815193849201611f3f565b8301019081520301601f198101835282611e7a565b51902090565b60ff81146125345760ff811690601f821161252357604080519261250e8285611e7a565b6020808552840191601f190136833783525290565b632cd44ac360e21b60005260046000fd5b5060405161218d81610682816001611ff2565b60ff811461256b5760ff811690601f821161252357604080519261250e8285611e7a565b5060405161218d81610682816002611ff2565b307f00000000000000000000000000000000000000000000000000000000000000006001600160a01b0316148061266b575b156125d9577f000000000000000000000000000000000000000000000000000000000000000090565b60405160208101907f8b73c3c69bb8fe3d512ecc4cf759cc79239f7b179b0ffacaa9a75d522b39400f82527f000000000000000000000000000000000000000000000000000000000000000060408201527f000000000000000000000000000000000000000000000000000000000000000060608201524660808201523060a082015260a081526124e460c082611e7a565b507f000000000000000000000000000000000000000000000000000000000000000046146125b0565b81519190604183036126c5576126be92506020820151906060604084015193015160001a90612742565b9192909190565b505060009160029190565b9190916004811015610a9257806126e657509050565b6000600182036127015763f645eedf60e01b60005260046000fd5b506002810361271f578263fce698f760e01b60005260045260246000fd5b909160036000921461272f575050565b6335e2f38360e21b825260045260249150fd5b91907f7fffffffffffffffffffffffffffffff5d576e7357a4501ddfe92f46681b20a084116127cb579160209360809260ff60009560405194855216868401526040830152606082015282805260015afa156127bf576000516001600160a01b038116156127b35790600090600090565b50600090600190600090565b6040513d6000823e3d90fd5b5050506000916003919056ad3228b676f7d3cd4284a5443f17f1962b36e491b30a40b2405849e597ba5fb5","linkReferences":{}},"methodIdentifiers":{"DEFAULT_ADMIN_ROLE()":"a217fddf","auctionAllocations(bytes32,uint256)":"6d85f750","auctionBids(bytes32,uint256)":"3dc37c89","auctionMetadata(bytes32)":"6087c5b8","auctionStatus(bytes32)":"b0603326","bidderNonceUsed(bytes32,address,uint256)":"839d5046","cancelAuction(bytes32,address)":"41686a22","closeAuction(bytes32,address)":"c1dfc01d","createAuction(string,address,uint64,bytes,address,uint256,uint8)":"8c3d0b36","eip712Domain()":"84b0196e","finaliseAuction(bytes32,address,(string,address,uint256,uint256,uint8)[],(uint256,uint256,bytes)[])":"83016955","getAllocations(bytes32)":"1b1acf4c","getAuction(bytes32)":"15924b5b","getAuctionId(string)":"f675f6d1","getAuctionStatus(bytes32)":"92547523","getRoleAdmin(bytes32)":"248a9ca3","getSealedBids(bytes32)":"77765bb2","grantRole(bytes32,address)":"2f2ff15d","hasRole(bytes32,address)":"91d14854","isinToAuctionCount(string)":"c620adbf","name()":"06fdde03","renounceRole(bytes32,address)":"36568abe","revokeRole(bytes32,address)":"d547741f","submitBid(bytes32,bytes,bytes32)":"fe581a60","supportsInterface(bytes4)":"01ffc9a7"},"id":82}